:020000040800F2
:10000000005000206D2700086125000869250008C0
:1000100000000000000000000000000000000000E0
:100020000000000000000000000000007125000832
:1000300000000000000000007B2500088525000866
:10004000BD270008BD27000895250008BD2700082A
:10005000BD270008BD270008BD270008AD25000802
:10006000BD270008BD270008BD270008BD270008E0
:10007000BD270008BD270008BD270008BD270008D0
:10008000BD270008BD270008BD27000800000000AC
:10009000BD270008BD270008BD270008BD270008B0
:1000A000BD270008BD270008BD270008BD270008A0
:1000B000C9250008BD27000800000000BD27000872
:1000C0000448054B10B5834203D0044B002B00D0ED
:1000D000984710BD0C0000200C000020000000001C
:1000E00006480749091A8B10C90FC91810B54910DD
:1000F00003D0044B002B00D0984710BD0C0000200B
:100100000C0000200000000010B5074C2378002BE5
:1001100009D1FFF7D5FF054B002B02D0044800E0C2
:1001200000BF0123237010BD0C0000200000000060
:10013000DC5E0008054B10B5002B03D004490548D0
:1001400000E000BFFFF7CCFF10BDC046000000007C
:1001500010000020DC5E0008002243088B4274D3AC
:1001600003098B425FD3030A8B4244D3030B8B42B8
:1001700028D3030C8B420DD3FF22090212BA030CC1
:100180008B4202D31212090265D0030B8B4219D3A2
:1001900000E0090AC30B8B4201D3CB03C01A5241C2
:1001A000830B8B4201D38B03C01A5241430B8B420A
:1001B00001D34B03C01A5241030B8B4201D30B03F3
:1001C000C01A5241C30A8B4201D3CB02C01A52411A
:1001D000830A8B4201D38B02C01A5241430A8B42DD
:1001E00001D34B02C01A5241030A8B4201D30B02C6
:1001F000C01A5241CDD2C3098B4201D3CB01C01AE0
:10020000524183098B4201D38B01C01A52414309E9
:100210008B4201D34B01C01A524103098B4201D3D7
:100220000B01C01A5241C3088B4201D3CB00C01A44
:10023000524183088B4201D38B00C01A52414308BC
:100240008B4201D34B00C01A5241411A00D20146E1
:10025000524110467047FFE701B5002000F0F0F86A
:1002600002BDC0460029F7D076E7704703460B432E
:100270007FD4002243088B4274D303098B425FD39F
:10028000030A8B4244D3030B8B4228D3030C8B42CB
:100290000DD3FF22090212BA030C8B4202D31212B1
:1002A000090265D0030B8B4219D300E0090AC30B86
:1002B0008B4201D3CB03C01A5241830B8B4201D333
:1002C0008B03C01A5241430B8B4201D34B03C01A1C
:1002D0005241030B8B4201D30B03C01A5241C30A94
:1002E0008B4201D3CB02C01A5241830A8B4201D305
:1002F0008B02C01A5241430A8B4201D34B02C01AEF
:100300005241030A8B4201D30B02C01A5241CDD293
:10031000C3098B4201D3CB01C01A524183098B42DE
:1003200001D38B01C01A524143098B4201D34B01C7
:10033000C01A524103098B4201D30B01C01A52412A
:10034000C3088B4201D3CB00C01A524183088B42B1
:1003500001D38B00C01A524143088B4201D34B009A
:10036000C01A5241411A00D201465241104670470C
:100370005DE0CA0F00D04942031000D34042534011
:1003800000229C4603098B422DD3030A8B4212D3D1
:10039000FC22890112BA030A8B420CD38901921103
:1003A0008B4208D3890192118B4204D389013AD040
:1003B000921100E08909C3098B4201D3CB01C01A15
:1003C000524183098B4201D38B01C01A5241430928
:1003D0008B4201D34B01C01A524103098B4201D316
:1003E0000B01C01A5241C3088B4201D3CB00C01A83
:1003F000524183088B4201D38B00C01A5241D9D29B
:1004000043088B4201D34B00C01A5241411A00D21B
:100410000146634652415B10104601D34042002B17
:1004200000D54942704763465B1000D3404201B596
:10043000002000F005F802BD0029F8D016E770474B
:100440007047C046844608006146FFE71FB500F0CC
:1004500091F9002801D40021C8421FBD10B500F059
:1004600017F94042013010BD10B500F083F90028A3
:1004700001DB002010BD012010BDC04610B500F00A
:1004800079F9002801DD002010BD012010BDC04613
:1004900010B500F025F9002801DC002010BD012076
:1004A00010BDC04610B500F01BF9002801DA00208D
:1004B00010BD012010BDC046002B11D1002A0FD164
:1004C000002900D1002802D00021C943080007B448
:1004D000024802A14018029003BDC04665FFFFFF1D
:1004E00003B4684601B5029800F006F8019B9E46E9
:1004F00002B00CBC7047C046F0B557464E46454664
:10050000DE46E0B504000D009246994683B08B426A
:1005100030D82DD04946504601F0DCFC29000600B9
:10052000200001F0D7FC331A9846203B34D49B4678
:1005300053465A46934042461F00534693401E007E
:10054000AF423BD8AF4200D179E05B46A41BBD412E
:10055000002B00DA76E000220023009201930123B1
:100560005A4693400193012342469340009329E069
:100570008242CFD900220023009201930C9B002BD2
:1005800001D01C605D600098019903B0F0BCBB46CF
:10059000B246A946A046F0BD42469B4620239B1A80
:1005A0005246DA40414613004A468A401700424606
:1005B0001F43534693401E00AF42C3D9002200237D
:1005C000009201934346002BD8D0FB0772081A43D0
:1005D00046467B080EE0AB4201D1A2420CD8A41AD9
:1005E0009D41012024196D410021013E24184D41F7
:1005F000002E06D0AB42EED9013E24196D41002EEB
:10060000F8D1009801995B4600196941002B24DB61
:100610002B005A464446D3402A00E2401C005B4669
:100620001500002B2ADB26009E403300260047469B
:10063000BE403200801A9941009001919EE7A3428A
:10064000BCD882E74246202300219B1A0022009159
:1006500001920122DA40019285E7424620239B1A4B
:100660002A0046469A402300F340444613432A009A
:10067000E2401C005B461500002BD4DA42462F00F6
:100680002023260097409B1ADE403B003343CDE7F2
:1006900070B542004E024C0045026D0A120EC30FA7
:1006A000760A240EC90FFF2A10D0FF2C0CD001208F
:1006B000A2420AD1B54208D18B420FD0002A04D100
:1006C0002800431E984100E0012070BD0120FF2C4E
:1006D000FBD13543F9D14B401800F6E70020F4E791
:1006E00030B5420044024D02C30F4800640A120EA6
:1006F0006D0A000EC90FFF2A17D0FF280AD0002A62
:100700001BD100280AD1002D24D0002C2ED1480066
:10071000013830BD002D26D1002A01D1002CF6D0A1
:100720008B4206D158000138F3E7002C1BD1FF287B
:1007300013D001205B421843EBE70028F9D08B422D
:10074000F7D18242F5DCEDDBAC42F2D80020AC42BE
:10075000DFD2E7E7002CDCD0EBE7002D03D18B42A2
:10076000E7D10020D5E702204042D2E78B42EBD010
:10077000DFE7C04630B5420044024D02C30F4800D7
:10078000640A120E6D0A000EC90FFF2A18D0FF2846
:100790000DD0002A1CD100280DD1002D27D0002C0F
:1007A0000BD08B421BD001205B4218430FE0002D81
:1007B0000CD1002A1ED1002C1CD14800013806E0C3
:1007C000002C03D1FF28EED1002D16D0022030BD21
:1007D0000028E8D08B42E6D18242E4DC04DBAC4264
:1007E000E1D80020AC42F2D258000138EFE7002CEB
:1007F000EDD0D8E78B42D6D1F6E700208B42E6D089
:10080000D1E7C046F0B54F464646D6464502C0B58C
:1008100046000F1C6D0A360EC40F002E00D1C3E037
:10082000FF2E77D08023ED00DB041D430023994683
:100830009A467F3E7B025B0A98467B001B0EFF0FA9
:10084000002B77D0FF2B00D194E042468021D200CC
:10085000C9041143884600217F3BF6184B46721CA1
:100860000A2B73DC4B467C40022B00DCA7E0484699
:1008700001238340A620C000034267D1902080005E
:10088000034200D0ECE0B938FF38184200D0DAE07B
:1008900041460904090C43460F00280C2D041B0C8B
:1008A0002D0C6F4341435D4358436D183B0C5B195E
:1008B000994203D9802149028C4660443F041904BF
:1008C0003F0CC9198D016F1EBD411B0C890E1B18F1
:1008D0000D439B011D431B0100D4C6E001236908A1
:1008E0001D400D4310007F30002800DC94E06B07B2
:1008F00004D00F232B40042B00D004352B0103D54B
:10090000803210005E4B1D40FE2855DCAB015B0AB7
:10091000C0B226E0002D00D078E008239946063BBF
:100920009A467B025B0A98467B00FF261B0EFF0F50
:10093000002B87D14346002B56D14A4601331A4338
:1009400091464B460121721C0A2B8BDD5346022B2C
:1009500032D0032B00D17CE05346012BC2D10020C2
:100960000023C0051843E4072043E0BCBA46B14663
:10097000A846F0BD33004246FF33002A3FD0032291
:1009800049461143721C8946FF320A2973DD0F293B
:100990005DD18023DB031D425BD042461A4258D111
:1009A0003C00FF201343DCE7002D11D104239946BE
:1009B000033B00269A463DE7FF200023D1E7013B99
:1009C000012B00D964E70229F6D045468A46C3E7E1
:1009D000280001F061FA7626431F9D4000237642ED
:1009E00099469A46361A25E7404601F055FA42469E
:1009F000431F9A40361A90460021763E2EE749461C
:100A00000232114389461E00022127E70C23994632
:100A1000093BFF269A460DE701231B1A1B2B9EDC80
:100A20009E3229009540D9406A1E95410D436B07BF
:100A300004D00F232B40042B00D004356B0116D5B6
:100A4000012000238DE73C0045468A467EE73C00B6
:100A500045468023DB032B435B02FF205B0A80E7D4
:100A600080230024FF20DB037BE732003AE7AB0161
:100A700000205B0A75E71E0003217C40F7E6C046B4
:100A8000FFFFFFF741024200C30F490A0020120E88
:100A90007E2A03DD9D2A02DD094A981870478020CE
:100AA00000040143952A07DC9620821AD14048426F
:100AB000002BF3D10800F1E7963A9140F7E7C046E2
:100AC000FFFFFF7FF0B557464E46DE464546E0B590
:100AD0000C0383B04E00640A470FCD0F59000092FB
:100AE000019327431C034B0D9A46009A019B640A0D
:100AF000D90F530F23439B46009B760DDA00944693
:100B00005246B21A9146C0008D4200D1C1E0002A7F
:100B100000DC86E05246002A00D105E1BF4A964239
:100B200000D1ADE14A460124382A19DC80225B4617
:100B3000120413439B464A461F2A00DD0BE24B4634
:100B400020225C466146D21A9440D9400C4361464B
:100B500091400A00511E8A4114435A46DA40BF1A96
:100B6000041BA042804140423B1A984643461B0268
:100B700000D44DE143465B025B0A98464346002B96
:100B800000D127E1404601F087F90300083B20220D
:100B900027004146D01A9940C7409C400F439E42CF
:100BA00000DDD3E1991B23000131521ACB40944060
:100BB0009846631E9C413B0093404246CF402243EF
:100BC0001400B84600261C43630709D00F232340B6
:100BD000042B05D0231DA342A4416442A0441C0061
:100BE00043461B0200D4CAE28C4A0136964200D129
:100BF000ECE043468A480340180073055B0DE408A7
:100C0000420722434402240B1B052343ED072B43D9
:100C10001000190003B0F0BCBB46B246A946A0467E
:100C2000F0BD002A00D194E05246921B9146002E5E
:100C300000D07EE13A00024300D1D7E14B465A1E74
:100C4000012B00D152E2754CA14500D115E20124DF
:100C5000382A13DC91464B461F2B00DD16E220227A
:100C60000500D21A3C00DD40DF4090405B469440D6
:100C7000DB1B421E90419B462C4304436246141BDF
:100C8000A44592415B4652429B1A98460D00564637
:100C90006CE7002A00DCC7E05246002A00D088E05A
:100CA00062465B461A4300D1FAE04B465A1E012BBE
:100CB00000D1AFE15949894500D1E1E00124382A4A
:100CC00017DC91464B461F2B00DDBFE12022D21AD4
:100CD0005B46934061461C004B46D94063469340B7
:100CE0001A000C43511E8A414B4614435A46DA40BF
:100CF000BF1824188442804140428046B84443468D
:100D00001B0200D484E0454B01369E425ED0424631
:100D1000434B01211A401300214062080A43DC07BB
:100D20005B08984614434FE762465B461A4300D17E
:100D3000B6E04A464946013A012900D17BE13749EC
:100D4000894500D19CE00124382A00DD08E791465E
:100D5000F1E6344C721C224200D0D3E03C006246E3
:100D60005B4604431A43002E00D044E1002C00D11E
:100D7000CAE1002A00D17DE16346C61AB042924121
:100D80005B465242FC1AA41A80221204144200D17B
:100D900012E263461C1A5B46D81BA4459B415B428A
:100DA000C01A104200D11DE21D4B0D001840012356
:100DB00025E71A4A964263D04A460124382A98DC2D
:100DC00080225B46120413439B467BE733000024DA
:100DD000002219E7200001F05FF8030018331F2BF1
:100DE00000DCD4E60838844027009E4200DDC4E0E1
:100DF0009B1B591C1F2900DCCCE11F3BDC40202938
:100E000005D040235B1A9F407B1E9F413C43002638
:100E1000630700D0DAE6B1460AE1C046FF070000EA
:100E2000FFFF7FFFFE070000002A46D05246921BBC
:100E30009146002E00D1A9E0D34A924500D121E18C
:100E40004B460124382B13DC8022120417434B46F7
:100E50001F2B00DD84E120223C00D21A01009040CB
:100E60009440D940421E9041DF400C430443BB44B0
:100E7000644464459241524290465646D8443EE707
:100E8000C0087A070243FF083B001343002B00D140
:100E9000A4E1802424033C432403BB4B240BB3E68E
:100EA000C008B94B7A070243FF089945ECD04B467E
:100EB0003C035B05240B5B0DA6E6B44A711C114292
:100EC00076D13A000243002E00D0EEE0002A00D195
:100ED00041E162465B461A4300D1CBE06346C2184B
:100EE000824280413B0040425B441C18D3082202EE
:100EF00000D46DE1A64A1440620764021A43240B31
:100F0000012381E66246841AA04292415B46524226
:100F10009146FB1A1A004B46D21A130090461A0249
:100F200059D44246224300D028E60025002300245D
:100F30006AE6954A924500D19FE04B460124382B42
:100F400000DD9BE680221204174384E6F61A904BDC
:100F50001F40B84638E659464B46203AD140202B30
:100F600006D04022D21A5B46934062461A4394460A
:100F70006446631E9C410C43F2E5F31A9946844B88
:100F80001F4043467A071A43FF0890E73A0002439E
:100F900000D1C6E04B465A1E012B00D102E17A492E
:100FA00089456FD00124382A00DD61E791464EE77C
:100FB000754A914200D1F1E06346C21882428041F5
:100FC0003B0040425B441B18DC0752085B08984614
:100FD0000E001443F8E563461C1AA44592415B4693
:100FE0005242DB1B9B1A98460D00C7E563460D0075
:100FF0005F46D80855E7002C00D096E0002A00D1C3
:10100000E2E06246DF08D2085B071A433B000D00AE
:1010100013433BE76346C4183B00844280415B4472
:1010200098464042804443461B026BD401239946B4
:101030004746E00835E76346C41AA04280415B4654
:101040004042FB1A1B1A984601268FE54A465B462A
:10105000203AD34019004B46202B06D04022D21A0A
:101060005B46934062461A4394466446631E9C4125
:101070000C433EE6C308984683E763460D005F468F
:10108000D808FEE663465F46D808FAE64A463D00C1
:10109000203AD540202B03D04022D21A9740384323
:1010A000421E904104002C43E8E5002AEAD0624643
:1010B0005B461A4300D1E3E68022FE08C0087F07A2
:1010C00012033843164208D0D908114205D16346AD
:1010D000D8085B460E005B0718433300420FC00080
:1010E0005207C008024337001343CFE663461C1A79
:1010F000A44592415B465242DB1B9B1A98460D0069
:10110000012633E5022602E6002A00D10DE76346F8
:10111000D8085B465A075B021C0B0D0000230243F4
:1011200072E563465F46D808BBE6002A00D1A7E611
:101130008022FE08C0087F07120338431642CCD035
:10114000DC081442C9D16346D8085B465B070D0032
:1011500026001843C1E76346DB0898465F4610E760
:101160004A463900203AD140202B03D04022D21ADF
:1011700097403843421E904104000C4378E6B14644
:101180004746E0088DE6C046FF070000FE07000066
:10119000FFFF7FFF20220024521A0CE50B000024E1
:1011A000002231E53B006044604592415B44984633
:1011B00052420400904436E73200224300D1B4E6A4
:1011C000F30898462700DCE6802700253F0360E609
:1011D000620764021A43240B002315E50022002451
:1011E000034B11E54207E4080D002243C7085EE601
:1011F000FF070000F0B5DE46454657464E46E0B5CF
:1012000087B0009201930B031B0B9B46CA0F4B0048
:10121000040080465B0D029200D189E08A4A934225
:1012200038D05946420FC9000A43802109041143AE
:10123000C2009046854A894692469A44002300247B
:101240000393009E019F3B031B0B9B467B003000DA
:101250005B0DFD0F002B00D19EE07B4A934200D135
:101260008CE05946720FC9000A43802109041143DA
:101270008B467649F2008C4651466344CB1A9A4617
:101280000021029E6E400F2C00D9EFE0704BA400AD
:101290001B599F465A460243914600D09DE09A460C
:1012A0000223904608240393CBE72E00002200245B
:1012B0009046654B1B052343F60733434046190010
:1012C00007B0F0BCBB46B246A946A046F0BD00221E
:1012D000002300249046EDE7CB464246029D039949
:1012E0000229E2D0032900D143E22E000129EED0E9
:1012F000584B5344002B00DC93E1510700D04AE2E5
:101300005946C90106D55946534B194080238B468F
:10131000DB00534451498B42C8DC5946D208490787
:1013200011435A465B0554028846240B5B0DC1E706
:101330005B460343994661D05B46002B00D1C2E176
:10134000584600F0A9FD0B235B429C4602008444F2
:1013500066461D239B1B260011005846DE400839B7
:10136000884033000343994623008B4098463C4B0A
:1013700000249B1A9A460023039362E75A46009B77
:101380001A43384B9C46E244002A32D102231C43C4
:10139000002302219B4674E75A46009B1A4322D041
:1013A0005B46002B00D1A0E1584600F075FD02001D
:1013B00003000B3A1D27009EBA1A19005846D64062
:1013C00008398840320002439346009A8A402649F1
:1013D00053448A4600219A4453E79A460323D94648
:1013E0000C2403932DE701231C43002301219B467A
:1013F00047E70323320003211C4342E700239846BA
:101400009A460133042403931BE700238024984663
:1014100000260D4B24034DE780244B462403234232
:1014200009D05B46234206D11C4324032E0090467C
:10143000054B240B3EE780244B4624031C43240326
:10144000029E014B240B35E7FF07000001FCFFFF64
:10145000F45E0008FF030000FFFFFFFEFE07000030
:101460000DFCFFFF01F8FFFFF3030000CB4500D2A6
:1014700020E100D11BE101235B429C4644464846E3
:101480000027E2445B46150E1B021D43190C2B047A
:10149000120200951D0C914602910395FEF7E2FEA3
:1014A00002006A430B04210C804619438A420ED97C
:1014B000009D0123AC465B4261449C46E0448D4262
:1014C00005D88A4203D9AC46831E98466144881ADF
:1014D0000299FEF7C7FE039A240442430904240C30
:1014E00003000C43A24206D90099013B8C46644498
:1014F000A14200D80DE1A01A424612041A439346B5
:101500004B4659461B0C1D0004930B044946090425
:10151000090C0C001B0C5C43120C6B4388465143B6
:101520006A43250CAC465B186344994203D9802179
:1015300049028C466244190C24041B04240C8A18AA
:101540001C19904200D29EE000D199E03C1BA742BA
:10155000BF41009D801A7F42C01B854200D10CE133
:101560000299FEF77FFE039A0B044243210C070009
:1015700019438A4208D9AC466144013F8D4203D8E1
:101580008A4201D9871E6144881A0299FEF76AFED1
:10159000039A240442430904240C03000C43A2428E
:1015A00009D90099013B8C466444A14203D8A24268
:1015B00001D9831E64444146A41A3A041A43049D87
:1015C00013041B0C594347466B439C46100C47437E
:1015D0000B0CBC44634468439F4203D980256D02D1
:1015E000AC4660441F0C09041B04090C3F185B182F
:1015F000BC4206D302D001231A4379E6002B00D166
:1016000076E60098511E84466444844200D2A8E0E5
:10161000BC4200D2D6E000D1E0E00A00EBE70122B4
:1016200052420121C91A382900DD50E61F2976DD12
:101630001F204042C31A5846D8400300202904D036
:1016400058466949514488400243511E8A411A4311
:10165000072319000024114013420CD00F2313401C
:10166000042B00D1BEE0111D91429B410A005B4258
:1016700059075B021C0BD2080A439046002319E667
:10168000A74200D362E75B46009D013B4F440593B0
:101690004F459B41AC465B426344C018854233D200
:1016A000824200D981E07DD0059B9B464EE74245B2
:1016B00000D9E0E64B46DC07580843465B081C436C
:1016C0004346DF07DEE600F0E7FB15239C46844433
:1016D0000200634620321C2B00DC39E62300083868
:1016E000834099460023984641E600F0D5FB02006E
:1016F0000300153220331C2A00DC5BE60099083811
:10170000814000228B4662E68542CDD1B945CBD8D7
:10171000C6E7A24200D8EEE6831E6444EBE63348F7
:101720001400504482405B4617008340CC407A1E30
:10173000974123433B431A005B46CB40510709D0F6
:101740000F211140042905D0111D914292415242AE
:101750009B180A0019028BD5002201230024904611
:10176000A8E50A00BC4200D045E74B4500D042E75F
:10177000BEE580245B46240356E61D4B1D4A5344B8
:10178000924500DA4BE7012149420A1D8A4289410C
:1017900049428B44B4E50F211140042900D1AFE543
:1017A0001100F2E7BC4200D87EE702235B429C4670
:1017B00000994F444F459B41E3448C465B42634450
:1017C000C018C3E64946009D480048458941AC46DB
:1017D000494261448146023A6418C3E79945F1D30E
:1017E0000A00C2E7002343E73E0400001E04000095
:1017F000FF03000002FCFFFFF0B557464E46DE46F1
:101800004546E0B589B0009201930B031B0B9A4645
:10181000CA0F4B00040091465B0D00D1BCE1D84AD1
:10182000934200D14AE15146420FC9000A43802148
:1018300009041143C2009046D24A8A469C180023EC
:1018400000250393009E019F3B031B0B9B46FA0F51
:101850007B0030005B0D049200D16FE1C84A9342D7
:1018600000D153E15946720FC9000A43802109048F
:101870001143C44A8B46944600216344F0001B196F
:101880005C1C0A2D00DD26E14E46049A5640F2B259
:101890000092022D00DCA8E10122AA40A627150033
:1018A000FF003A403D4200D013E19027BF003D4287
:1018B00000D016E288222A4200D0EFE1414642469B
:1018C0000904090C0D00170C020C0004000C454320
:1018D000AC46050016007D43A8460D007E430392EA
:1018E00004963200039E75436646360CB146454465
:1018F0004D44A84505D91600802252029046464420
:1019000004962E0C059666463604360CB4462D0415
:10191000654406955D462D0CA9465D460E002D04D6
:101920002D0C6E43B4462E007E43B3464E467143A3
:10193000594488466146090C414477438B4503D995
:1019400080225202904647440E0CB0463E00464468
:10195000079666463704059E3F0CB4460904C9192C
:101960008C44664605965646360CB44656463704B1
:101970003F0C3E004643B04666464643B2464646A6
:101980006046360CB346039A50437A4352445A4455
:10199000924503D980267602B2465044160CB246D0
:1019A00082444046120490460004000C3A004E4621
:1019B000804460466A4377434543704384467819C0
:1019C000170C3F18BD4203D9802040028146CC4409
:1019D000059D0498A946079E484488428941B1461E
:1019E00012043D04120CAA184A44494255184044B6
:1019F000A9464045AD41C8466D42AB46B242924110
:101A000089458941D044C344494252420A43AB45C7
:101A1000AD41D04589416D4249420D4359463F0C85
:101A2000D219521962445202C90D069D11438A46C9
:101A3000410229434D1EA941C00D084359464902A0
:101A400008438046D20100D473E1012243080240DA
:101A500013435246D2071343984653465B089A46AF
:101A6000009B9946484BE318002B00DCE5E042461A
:101A700052070AD00F2241460A40042A05D00431F9
:101A8000414592418846524292445246D20106D57F
:101A900052463E4B1A4080239246DB00E3183C4AF4
:101AA000934200DD9DE04246D108524652070A4368
:101AB00051465B054C02240B5B0D19E05246024374
:101AC000904600D0B3E01C00022392460825039301
:101AD000B8E6009B9946039B022B00D181E0032BC3
:101AE00000D1F5E0039B012BBCD100230024002290
:101AF00010004A461B052343D2071343190009B0BF
:101B0000F0BCBB46B246A946A046F0BD5B46009E6F
:101B10001E431B4BE318002E00D181E003224E46EA
:101B20001543049A5640F2B2009280221201944664
:101B300064440A2D00DDB7E00321ADE65B46009A60
:101B4000134365D05B46002B00D1E2E0584600F01D
:101B5000A3F9020003000B3A1D27009EBA1A1900D0
:101B60005846D640083988403200024300989346D0
:101B70008840084AE31A94460021634480E6C04640
:101B8000FF07000001FCFFFFFF030000FFFFFFFE57
:101B9000FE0700000DFCFFFF53460343984630D07C
:101BA0005346002B00D1A2E0504600F075F90B23FC
:101BB0005B429C460200844466461D239B1B260014
:101BC00011005046DE4008398840330003439A46EE
:101BD00023008B4098460023694C0025A41A0393E8
:101BE00030E600240022674B82E7013D012D00D939
:101BF00064E6009B99460229F3D0DA4680460391B9
:101C000070E700239A46013304250024039319E664
:101C1000002201331D4393462300002001212FE6BB
:101C200002221543002200209346022128E61C00D0
:101C3000032380460C25039304E60121C91A3829A1
:101C400000DD52E71F2978DD1F225242D31A524687
:101C5000DA401300202907D04B4A414694465246A9
:101C60006444A240114388464246511E8A411A43A9
:101C7000072319000024114013420BD00F231340F7
:101C8000042B7BD0131D9342A4411A0064426107C8
:101C90006402240BD20800230A4329E7049BDA4696
:101CA00099468046039116E70F2D0DD180245346A7
:101CB000240323420CD05B46234209D11C43049BDE
:101CC000020099462F4B13E7049BDA46994680465B
:101CD0008024534624031C4324034246294B240BEF
:101CE00006E70023802499462403264B00E700F0F2
:101CF000D3F815239C4684440200634620321C2BF3
:101D000000DC59E7002398462300083883409A46B0
:101D100061E700F0C1F802000300153220331C2AED
:101D200000DC19E702000099083A914000208B4638
:101D30001FE7009A1C00914694E6144B52469C46BD
:101D400043466444A240CB401A434346A340581E36
:101D5000834154461A43CC40530709D00F23134004
:101D6000042B05D0131D934292415242A4181A002D
:101D700023028CD5012300240022B9E6002486E743
:101D80000DFCFFFFFF0700003E0400001E040000E2
:101D90000B00020070B5164D0C0382B04900002004
:101DA00000920193240B490DDE0FA94204DD114876
:101DB000814203DD104BF01802B070BD802040035B
:101DC00020430E4C641A1F2C08DD0D4B5B1AD840C3
:101DD00003005842002EEFD11800EDE7094B009A9E
:101DE0009C46030061448B40E2401343F1E7C04648
:101DF000FE0300001D040000FFFFFF7F330400000E
:101E000013040000EDFBFFFF70B542024300C40F56
:101E1000FE201B0E591C550A08420CD0E0218900F7
:101E20008C466D07120B63441B051343E4072343E1
:101E30002800190070BD002B14D1002D1BD02800E4
:101E400000F02AF80A281CDC0B232A001B1ADA40AF
:101E5000030015339D400E4B12031B1A5B05120B3A
:101E60005B0DE1E7002D09D0130B802212031A430A
:101E70006D07084BD8E700230022D5E70022054B69
:101E8000D2E703002A000B3B9A400025E3E7C04657
:101E900089030000FF0700001C2101231B04984256
:101EA00001D3000C10391B0A984201D3000A0839EB
:101EB0001B09984201D30009043902A2105C4018A2
:101EC0007047C04604030202010101010000000046
:101ED0000000000010B5002903D1FFF7DDFF20301E
:101EE00002E00800FFF7D8FF10BDC04670B50D4BEB
:101EF0000D4D5E1BB610AB4205D0002408CD013459
:101F00009847A642FAD803F0E9FF084B084D5E1B3C
:101F1000B610AB4205D0002408CD01349847A64244
:101F2000FAD870BDA85F0008A85F0008AC5F000881
:101F3000A85F0008F0B50500830749D0541E002AA9
:101F400045D003000326CAB202E00135013C3ED36E
:101F500001332A703342F8D1032C30D9FF220A40D2
:101F60001502AD182A04AD180F2C34D92700103FE4
:101F70003F093E01B4461E001A0010366644156043
:101F800055609560D56010329642F8D101373F0117
:101F9000DB190F270C22274022403C00002A0ED0DC
:101FA0003E1FB608B400A4461A001C1D644420C29B
:101FB000A242FCD103240136B6009B193C40002C00
:101FC00005D0C9B21C19197001339C42FBD1F0BD78
:101FD00003001400C0E72700E2E7C04680B584B0E4
:101FE00000AF01F021F900F05DF800F0DDF900F03C
:101FF000D3F800F071F900F0A7F98023DB01254840
:102000000122190002F056FA0023FB600A23FB1894
:10201000802292011A80FB680133FB60FB68032277
:10202000134005D10A23FB18802292011A800FE089
:10203000FB6803211800FEF7FFF90B1E04D10A23E9
:10204000FB18154A1A8003E00A23FB18134A1A806A
:10205000002213490A23FB181B88180000F0B0FB6C
:1020600000237B6011E00B4B2021180002F03FFAA7
:10207000084B4021180002F03AFAFA239B0018009E
:1020800001F042F97B6801337B607B68002BEADD5D
:10209000C1E7C046000400502820000002200000D4
:1020A0000024744990B59DB000AF38243B19180046
:1020B00038231A000021FFF73DFF2423FB181800E6
:1020C00014231A000021FFF735FF3B0018002423DA
:1020D0001A000021FFF72EFF2D4B1B682D4A1A40D6
:1020E0002B4B802109010A431A6021007B180A2228
:1020F0001A607B180122DA607B1810221A617B18A3
:1021000001225A617B1802229A627B180022DA624D
:102110007B18802212031A637B18802212045A63F0
:102120007B18180001F014F9031E01D000F012FA18
:1021300024217B180F221A607B1803225A607B1817
:1021400000229A607B180022DA607B1800221A6154
:102150007B180121180001F0CFFC031E01D000F014
:10216000F9F93B0022221A603B000022DA603B00B2
:10217000802292025A603B00180001F0C1FE031E4B
:1021800001D000F0E7F9C046BD461DB090BDC04685
:1021900000700040FFE7FFFF80B590B000AF2C2338
:1021A000FB18180014231A000021FFF7C3FE282390
:1021B000FB1800221A603B00180028231A00002197
:1021C000FFF7B8FE414B424A1A60404B00225A606A
:1021D0003E4B1F229A603D4B3E4ADA603B4B002249
:1021E0001A613A4B00225A61384B00229A61374BF0
:1021F0000022DA61354B180000F0C4FB031E01D049
:1022000000F0A8F92C217B1800221A707B180022FC
:102210005A707B1800229A707B180022DA607B18B3
:1022200000221A617918294B0022180000F046FCA0
:10223000031E01D000F08EF928217B1801221A70AC
:102240007B1801225A707B1801229A707B18002299
:10225000DA7079181D4B0022180000F0D9FC031E1B
:1022600001D000F077F93B0000221A703B000022F9
:102270005A703B0000229A703B0000225A603B00DB
:102280000022DA603B0000221A613B0000225A6102
:102290003B00F02212059A613B000022DA613B000C
:1022A0002022012199543B00802252005A623900B9
:1022B000064B0022180000F03FFD031E01D000F085
:1022C00049F9C046BD4610B080BDC0462800002078
:1022D00000280040FF03000080B500AF184B194AEA
:1022E0001A60174B822252005A60154B00229A60E6
:1022F000134B80221201DA60114B00221A61104B3D
:1023000000225A610E4B802292009A610C4B3822B7
:10231000DA610B4B00221A62094B00225A62084B09
:1023200000229A62064B0722DA62054B180002F07F
:1023300085FA031E01D000F00DF9C046BD4680BDF0
:102340004C0000200038004080B500AF144B154A07
:102350001A60134BE12252025A60114B00229A601C
:102360000F4B0022DA600E4B00221A610C4B0C223C
:102370005A610B4B00229A61094B0022DA61084B2B
:1023800000221A62064B00225A62054B180002F026
:1023900021FD031E01D000F0DDF8C046BD4680BD22
:1023A000A40000200044004090B58BB000AF14247E
:1023B0003B19180014231A000021FFF7BBFD604BE6
:1023C000DA6A5F4B01210A43DA625D4BDB6A012264
:1023D00013403B613B695A4BDA6A594B02210A436D
:1023E000DA62574BDB6A02221340FB60FB68544BF6
:1023F000DA6A534B04210A43DA62514BDB6A042246
:102400001340BB60BB684E4BDA6A4D4B80210A43D8
:10241000DA624B4BDB6A802213407B607B68494960
:10242000A023DB050022180002F044F84649474B80
:102430000022180002F03EF8454B0022042118004B
:1024400002F038F83B193F4A1A603B1901225A60E2
:102450003B1900229A603B190222DA603A19A02344
:10246000DB051100180001F0A7FE3B1908221A60D5
:102470003B1902225A603B1900229A603B19032241
:10248000DA603B1900221A613B19304A190010002A
:1024900001F092FE3B192C4A1A603B1901225A6046
:1024A0003B1900229A603B190022DA603B19274A47
:1024B0001900100001F080FE21007B1810221A6024
:1024C0007B18882252035A607B1800229A600C0005
:1024D0007B181E4A1900100001F06EFE21007B18C7
:1024E000802292011A607B18882252035A607B185E
:1024F00000229A600C007B18154A1900100001F0A8
:102500005BFE21007B1804221A607B1801225A60AE
:102510007B1800229A607B180222DA607B180C4A32
:102520001900100001F048FE00220021072002F0EF
:1025300053F9072002F065F9C046BD460BB090BDC7
:1025400000100240029000006040000000040050B3
:102550000008005080B500AF72B6C046C046FDE727
:1025600080B500AFC046FDE780B500AFC046FDE7CF
:1025700080B500AFC046BD4680BD80B500AFC04647
:10258000BD4680BD80B500AF00F0A2FEC046BD468E
:1025900080BD000080B500AF034B180000F02EFD99
:1025A000C046BD4680BDC0462800002080B500AFB3
:1025B000102001F0B7FF80239B01180001F0B2FF4B
:1025C000C046BD4680BD000080B500AF034B18007B
:1025D00002F054FCC046BD4680BDC046A4000020A9
:1025E00080B500AF074B5A6B064B01210A435A6373
:1025F000044B9A6B034B802149050A439A63C046FA
:10260000BD4680BD0010024080B582B000AF78604A
:102610007B681B680A4A93420ED10A4B1A6D094B1C
:102620008021C9020A431A6500220021022002F01B
:10263000D3F8022002F0E5F8C046BD4602B080BDE6
:10264000002800400010024090B589B000AF7860CB
:102650000C243B19180014231A000021FFF76AFC10
:102660007B681B68184A934229D1184B9A6B174B09
:102670008021C9010A439A63144BDA6A134B022181
:102680000A43DA62114BDB6A02221340BB60BB686B
:102690003B19A02212021A6021007B1802225A6004
:1026A0007B1800229A607B180322DA607B180022D4
:1026B0001A617B18064A1900100001F07DFDC04622
:1026C000BD4609B090BDC046003800400010024031
:1026D0000004005090B589B000AF78600C243B191D
:1026E000180014231A000021FFF724FC7B681B68E4
:1026F0001C4A934231D11C4B9A6B1B4B802189029F
:102700000A439A63184BDA6A174B01210A43DA62CB
:10271000154BDB6A01221340BB60BB6821007B18AC
:102720000C221A607B1802225A607B1800229A60E1
:102730007B180322DA607B1804221A617A18A0231E
:10274000DB051100180001F037FD002200211C20DC
:1027500002F042F81C2002F054F8C046BD4609B011
:1027600090BDC04600440040001002400D48854620
:1027700000F002F90C480D490D4A002302E0D4583C
:10278000C4500433C4188C42F9D30A4A0A4C0023BB
:1027900001E013600432A242FBD3FFF7A7FBFFF76F
:1027A0001DFCFEE700500020000000200C0000206F
:1027B000B05F00080C00002030010020FEE70000A0
:1027C00090B58BB000AFB9607A600E23FB18021C85
:1027D0001A8000217868FDF747FE031E01D0002310
:1027E0007B605E497868FDF753FE031E01D05B4BAA
:1027F0007B605B497868FEF705F8031C181CFEF740
:1028000041F90200C0231B0213437B6200233B6299
:10281000B868FFF7F9FA0022524BFEF7EDFF02000D
:102820000B001000190000224F4BFEF7E3FC0200E2
:102830000B001000190000224C4BFEF743F9020078
:102840000B0010001900FFF7A3FA03003B623B6A7C
:102850009B139AB21E203B189204920C1A803B6A7A
:102860009AB21C217B189204920C1A807B187A1859
:1028700012888021C9010A431A803B183A1812882D
:102880008021C9010A431A808023DB0138480022D5
:10289000190001F00FFE0E23F91836480A23012211
:1028A00002F060F8031E01D0FFF754FE8023DB0125
:1028B0002F480122190001F0FDFD012000F024FD48
:1028C00010217B18842292011A807B181C22BA18CE
:1028D00012885A807B181E22BA1812889A807B6A46
:1028E0009AB27B18DA800C007B18802292011A8140
:1028F0008023DB011E480022190001F0DBFD39199D
:102900001C480A23052202F02DF8031E01D0FFF710
:1029100021FE8023DB0116480122190001F0CAFDC7
:102920008023DB0112480022190001F0C3FD0E23B1
:10293000F91810480A23012202F014F8031E01D0EE
:10294000FFF708FE8023DB0109480122190001F08E
:10295000B1FDC046BD460BB090BDC0460000B443BB
:10296000000030410000B04184D777410000F03FC3
:10297000000400504C00002080B500AFC046BD46AA
:1029800080BD0000B0B584B000AF78600F23FB18A5
:1029900001221A707B68002B01D1012388E07B683B
:1029A00021229B5CDBB2002B07D17B682022002117
:1029B00099547B681800FFF727FE7B6821220221CB
:1029C00099547B681B68DB6810221340102B5FD082
:1029D0007B681B68CA225A627B681B6853225A6252
:1029E0000F257C197B68180000F086FB030023701C
:1029F00028003B181B78002B2CD17B681B689A6839
:102A00007B681B682C490A409A607B681B68996840
:102A10007B685A687B681B691A437B689B691A4309
:102A20007B681B680A439A607B681B687A68D26877
:102A30001A617B681B6819697B689B681A047B684C
:102A40001B680A431A613C187B68180000F098FB69
:102A5000030023700F23FB181B78002B13D17B6816
:102A60001B68DA6C7B681B6803218A43DA647B6825
:102A70001B68D96C7B68DA697B685B691A437B6881
:102A80001B680A43DA647B681B68FF225A6203E012
:102A90000F23FB1800221A700F23FB181B78002B42
:102AA00003D17B682122012199540F23FB181B7845
:102AB0001800BD4604B0B0BDBFFF8FFFB0B586B0F3
:102AC00000AFF860B9607A6000237B61FB68202268
:102AD0009B5C012B01D1022392E0FB6820220121A3
:102AE0009954FB682122022199547B68002B25D13F
:102AF000FB681B689B684022134002D1BB68002220
:102B0000DA70BB681B78180000F064FB03001C043B
:102B1000BB685B78180000F05DFB03001B021C43E0
:102B2000BB689B78180000F055FB030022001A4395
:102B3000BB68DB789B0513437B6117E0FB681B6870
:102B40009B684022134002D1BB680022DA70BB6848
:102B50001B781A04BB685B781B021343BA6892782F
:102B60001A43BB68DB789B0513437B61FB681B68DA
:102B7000CA225A62FB681B6853225A6213257C19C9
:102B8000FB68180000F0B8FA0300237028003B1817
:102B90001B78002B20D1FB681B687A691A490A4010
:102BA0001A60FB681B689A68FB681B6817490A4033
:102BB0009A60FB681B689968BB68DA68BB681B6928
:102BC0001A43FB681B680A439A603C18FB681800AC
:102BD00000F0D6FA030023701323FB181B78002B98
:102BE00003D1FB68212201219954FB681B68FF2255
:102BF0005A62FB682022002199541323FB181B788A
:102C00001800BD4606B0B0BD7F7F7F00FFFFFBFF11
:102C1000B0B586B000AFF860B9607A6000237B6120
:102C2000FB6820229B5C012B01D102237EE0FB6824
:102C3000202201219954FB682122022199547B68AA
:102C4000002B0ED1BB685B781A001023134008D00C
:102C5000BB685B7810229343DBB20A33DAB2BB68FD
:102C60005A707B68002B1CD1BB68DB78180000F021
:102C7000B1FA03001C04BB685B78180000F0AAFAE4
:102C800003001B021C43BB689B78180000F0A2FAEB
:102C9000030022001A43BB681B785B0313437B616C
:102CA0000EE0BB68DB781A04BB685B781B02134339
:102CB000BA6892781A43BB681B785B0313437B6145
:102CC000FB681B68CA225A62FB681B6853225A625F
:102CD00013257C19FB68180000F00EFA030023701E
:102CE00028003B181B78002B0CD1FB681B687A6905
:102CF00010490A405A603C18FB68180000F040FA7E
:102D0000030023701323FB181B78002B03D1FB68EF
:102D1000212201219954FB681B68FF225A62FB683B
:102D20002022002199541323FB181B781800BD465C
:102D300006B0B0BD3FFFFF0090B589B000AFF860AE
:102D4000B9607A60A74B1B68FA22D1011800FDF721
:102D500003FA03001A0013005B019B1A9B009B18E7
:102D6000DB007B610023FB610023BB61FB68202249
:102D70009B5C012B01D1022330E1FB682022012161
:102D80009954FB682122022199547B68002B36D18B
:102D9000FB681B689B684022134002D1BB6800227D
:102DA000DA70BB681B78180000F014FA03001C04EA
:102DB000BB685B78180000F00DFA03001B021C438F
:102DC000BB689B78180000F005FA030022001A4344
:102DD000BB68DB789B051A431400BB6820229B5C10
:102DE000180000F0F7F903001B0622001A43BB6825
:102DF000DB691A43BB685B691343FB6122E0FB6834
:102E00001B689B684022134002D1BB680022DA7025
:102E1000BB681B781A04BB685B781B021343BA6853
:102E200092781A43BB68DB789B051A43BB68202164
:102E30005B5C1B061A43BB68DB691A43BB685B69B2
:102E40001343FB61BB685A68BB689B691343BB6152
:102E5000FB681B68CA225A62FB681B6853225A62CD
:102E6000BB685A6A80235B009A4246D1FB681B68A4
:102E70009A68FB681B685C490A409A60FB681B689B
:102E8000DB68FF221A40FB681B6858490A43DA6076
:102E90007B69013B7B617B69002B0DD1FB681B6863
:102EA000FF225A62FB68212203219954FB682022E9
:102EB00000219954032391E0FB681B68DB68012221
:102EC0001340E5D0FB681B68FA69DA61FB681B6890
:102ED000BA695A64FB681B689A68FB681B688021A2
:102EE00049000A439A60FB681B689A68FB681B6884
:102EF000802149010A439A6055E0FB681B689A6883
:102F0000FB681B683A490A409A60FB681B68DB68EB
:102F1000FF221A40FB681B6836490A43DA60314BCE
:102F20001B68FA22D1011800FDF716F903001A00F8
:102F300013005B019B1A9B009B18DB007B617B6984
:102F4000013B7B617B69002B0DD1FB681B68FF2275
:102F50005A62FB68212203219954FB682022002138
:102F6000995403233AE0FB681B68DB680222134094
:102F7000E5D0FB681B68FA691A62FB681B68BA69CE
:102F80009A64FB681B689A68FB681B68802189004B
:102F90000A439A60FB681B689A68FB681B6880217B
:102FA00089010A439A60144B1A68134B80218902E5
:102FB0000A431A60104B9A680F4B802189020A431A
:102FC0009A60FB681B68FF225A62FB68212201217C
:102FD0009954FB6820220021995400231800BD4613
:102FE00009B090BD00000020FFFEFFFF7FFEFFFF45
:102FF000FFFDFFFF7FFDFFFF0004014080B582B0B1
:1030000000AF7860214B802292025A617B681B6876
:103010009A6880235B01134014D07B681B68DA68D0
:1030200080235B0013400DD07B681B68DB68FF22A8
:103030001A407B681B6816490A43DA607B681800EF
:1030400000F02AF87B681B689A6880239B01134074
:1030500014D07B681B68DA6880239B0013400DD076
:103060007B681B68DB68FF221A407B681B68094984
:103070000A43DA607B68180000F0CDF87B682122F3
:1030800001219954C046BD4602B080BD00040140F4
:103090007FFEFFFF7FFDFFFF80B582B000AF78604D
:1030A000C046BD4602B080BD80B584B000AF786038
:1030B0000023FB607B681B680E4ADA6000F01AF997
:1030C0000300FB600AE000F015F90200FB68D21A69
:1030D000FA239B009A4201D9032306E07B681B6810
:1030E000DB6820221340EED000231800BD4604B058
:1030F00080BDC0465FFF010080B584B000AF78603E
:103100000023BB600F23FB1800221A707B681B682A
:10311000DB68402213402CD17B681B68DA687B682F
:103120001B6880210A43DA6000F0E4F80300BB600A
:1031300014E000F0DFF80200BB68D21A0F203B1841
:10314000391809781970FA239B009A4206D97B68CE
:103150002122042199543B1801221A707B681B68B4
:10316000DB684022134004D10F23FB181B78012B8E
:10317000DFD10F23FB181B781800BD4604B080BDBB
:1031800090B585B000AF78600F243B1900221A700B
:103190007B681B68DA687B681B6880218A43DA6079
:1031A0007B681B689B68202213400CD17B68180049
:1031B000FFF77AFF031E06D07B6821220421995471
:1031C0003B1901221A700F23FB181B781800BD460B
:1031D00005B090BD80B584B000AF0200FB1D1A7031
:1031E0000023FB6007E0FB680133FB60FB1DFA1D59
:1031F00012780A3A1A70FB1D1B78092BF3D8FB686A
:10320000DBB21B01DAB2FB1D1B781343DBB21800E3
:10321000BD4604B080BD80B582B000AF7860C046C6
:10322000BD4602B080BD000080B582B000AFFB1D7E
:1032300000221A700B4B1A680A4B40210A431A608D
:10324000002000F011F8031E03D0FB1D01221A70AC
:1032500001E0FFF7C5F9FB1D1B781800BD4602B061
:1032600080BDC0460020024090B583B000AF7860BA
:10327000144B1C68144B1B781900FA239800FCF7B8
:103280006BFF030019002000FCF766FF0300180025
:1032900001F0C7FA031E01D001230FE07B68032B66
:1032A0000BD8796801235B420022180001F094FAE0
:1032B000064B7A681A60002300E001231800BD461F
:1032C00003B090BD00000020080000200400002092
:1032D00080B500AF054B1B781A00054B1B68D21850
:1032E000034B1A60C046BD4680BDC04608000020A2
:1032F0002C01002080B500AF024B1B681800BD46B2
:1033000080BDC0462C01002080B584B000AF78603D
:10331000FFF7F0FF0300BB607B68FB60FB680133D5
:1033200005D00A4B1B781A00FB689B18FB60C0464F
:10333000FFF7E0FF0200BB68D31AFA689A42F7D899
:10334000C046C046BD4604B080BDC046080000204F
:10335000B0B58AB000AF78607B68002B02D1012342
:1033600000F0BFFBC94BDB680C221340FB61C74B6D
:10337000DA6880235B021340BB617B681B68012213
:10338000134000D17EE0FB69082B07D0FB690C2BB2
:1033900012D1BA6980235B029A420DD1BB4B1A68E5
:1033A00080239B02134000D16BE07B685B68002B9D
:1033B00067D1012300F095FB7B685A6880235B028C
:1033C0009A4207D1B14B1A68B04B802149020A4397
:1033D0001A6027E07B685A68A023DB029A420ED16C
:1033E000AA4B1A68A94B8021C9020A431A60A74B4D
:1033F0001A68A64B802149020A431A6012E0A34BC7
:103400001A68A24BA2490A401A60A04B1A6880238E
:103410005B021340FB60FB689C4B1A689B4B9D4909
:103420000A401A607B685B68002B15D0FFF762FFCB
:1034300003007B6109E0FFF75DFF02007B69D31A9F
:10344000642B02D9032300F04CFB904B1A688023B5
:103450009B021340EFD015E0FFF74CFF03007B61A8
:1034600008E0FFF747FF02007B69D31A642B01D9FC
:10347000032336E3854B1A6880239B021340F0D167
:1034800000E0C0467B681B680222134000D199E02F
:103490007B68DB687B627B6A2022134009D07B4B10
:1034A0001A687A4B20210A431A607B6A20229343D0
:1034B0007B62FB69042B05D0FB690C2B3ED1BB69F9
:1034C000002B3BD1714B1B680422134004D07B6A54
:1034D000002B01D1012304E36C4B5B686E4A13405F
:1034E00019007B681B691A02684B0A435A60674BD4
:1034F0001B68092293431900644B7A6A0A431A60D5
:1035000000F042FC0100614BDB681B090F221340F5
:10351000624AD35C0A00DA40614B1A60614B1B6857
:1035200013257C191800FFF79FFE030023707B19F9
:103530001B78002B46D07B191B78D2E27B6A002BCC
:1035400027D0524B1B680922934319004F4B7A6ACC
:103550000A431A60FFF7CEFE03007B6108E0FFF725
:10356000C9FE02007B69D31A022B01D90323B8E2FA
:10357000464B1B6804221340F1D0444B5B68464A1B
:10358000134019007B681B691A02404B0A435A60BA
:1035900018E03E4B1A683D4B01218A431A60FFF741
:1035A000A9FE03007B6108E0FFF7A4FE02007B692F
:1035B000D31A022B01D9032393E2344B1B68042254
:1035C0001340F1D17B681B681022134000D1A2E0A8
:1035D000FB69002B40D12D4B1A6880239B001340C0
:1035E00005D07B68DB69002B01D1012379E2274BF1
:1035F0005B682D4A134019007B685A6A234B0A43C3
:103600005A60224B5B681B02190A7B681B6A1A0608
:103610001E4B0A435A607B685B6A5B0B0133802256
:1036200012029A40194BDB681B090F210B401B4902
:10363000CB5CDA401A4B1A601A4B1B6813257C19B5
:103640001800FFF711FE030023707B191B78002B75
:1036500061D07B191B7844E27B68DB69002B40D08A
:103660000A4B1A68094B802149000A431A60FFF788
:1036700041FE03007B6119E0FFF73CFE02007B691D
:10368000D31A022B12D903232BE2C04600100240AA
:10369000FFFFFEFFFFFFFBFFFFE0FFFF345F0008BF
:1036A0000000002004000020FF1FFFFFCA4B1A6823
:1036B00080239B001340DFD0C74B5B68C74A134091
:1036C00019007B685A6AC44B0A435A60C24B5B6854
:1036D0001B02190A7B681B6A1A06BF4B0A435A6011
:1036E00019E0BD4B1A68BC4BBD490A401A60FFF790
:1036F00001FE03007B6108E0FFF7FCFD02007B692F
:10370000D31A022B01D90323EBE1B34B1A688023B0
:103710009B001340F0D17B681B680822134036D011
:103720007B685B69002B19D0AB4B1A6DAA4B01214A
:103730000A431A65FFF7DEFD03007B6108E0FFF72F
:10374000D9FD02007B69D31A022B01D90323C8E1FA
:10375000A14B1B6D02221340F1D018E09E4B1A6D55
:103760009D4B01218A431A65FFF7C4FD03007B616D
:1037700008E0FFF7BFFD02007B69D31A022B01D9D5
:103780000323AEE1944B1B6D02221340F1D17B6801
:103790001B680422134000D1AEE023203B18002216
:1037A0001A708D4B9A6B80235B05134009D18A4BAD
:1037B0009A6B894B802149050A439A633B18012281
:1037C0001A70884B1A6880235B0013401AD1854B0E
:1037D0001A68844B802149000A431A60FFF78AFD6A
:1037E00003007B6108E0FFF785FD02007B69D31AC7
:1037F000642B01D9032374E17A4B1A6880235B00A0
:103800001340F0D07B689A6880235B009A4207D10E
:10381000714B1A6D704B802149000A431A6531E0E3
:103820007B689B68002B0CD16B4B1A6D6A4B6C4903
:103830000A401A65684B1A6D674B6B490A401A6556
:1038400020E07B689A68A023DB009A420ED1624B8D
:103850001A6D614B8021C9000A431A655E4B1A6DCF
:103860005D4B802149000A431A650BE05A4B1A6DE3
:10387000594B5B490A401A65574B1A6D564B5A49CA
:103880000A401A657B689B68002B15D0FFF732FD54
:1038900003007B6109E0FFF72DFD02007B69D31A6D
:1038A000524A934201D903231BE14B4B1A6D8023EB
:1038B0009B001340EFD014E0FFF71CFD03007B6179
:1038C00009E0FFF717FD02007B69D31A474A9342CC
:1038D00001D9032305E1404B1A6D80239B0013405F
:1038E000EFD12323FB181B78012B05D13A4B9A6BA0
:1038F000394B3F490A409A637B681B68202213407A
:1039000049D07B689B69002B26D0334B9A68324B99
:1039100001210A439A60304B5A6B2F4B01210A4315
:103920005A63344B1A6A334B802189010A431A6265
:10393000FFF7E0FC03007B6108E0FFF7DBFC02001F
:103940007B69D31A022B01D90323CAE0224B9B685F
:1039500002221340F1D01EE01F4B9A681E4B01213A
:103960008A439A60234B1A6A224B23490A401A62FF
:10397000FFF7C0FC03007B6108E0FFF7BBFC02001F
:103980007B69D31A022B01D90323AAE0124B9B684F
:1039900002221340F1D17B689B6A002B00D19FE08B
:1039A000FB690C2B00D178E07B689B6A022B59D114
:1039B000094B1A68084B11490A401A60FFF79AFC34
:1039C00003007B611CE0FFF795FC02007B69D31AC2
:1039D000022B15D9032384E000100240FF1FFFFFD4
:1039E000FFFEFFFF00700040FFFBFFFF8813000099
:1039F000FFFFFFEF00000140FFDFFFFFFFFFFFFEC3
:103A00003A4B1A6880239B041340DCD1374BDB68A8
:103A1000374A134019007B68DA6A7B681B6B1A43CC
:103A20007B685B6B1A43314B0A43DA602F4B1A6891
:103A30002E4B802149040A431A60FFF75BFC030008
:103A40007B6108E0FFF756FC02007B69D31A022B6A
:103A500001D9032345E0254B1A6880239B041340BA
:103A6000F0D03DE0214B1A68204B22490A401A60F1
:103A7000FFF740FC03007B6108E0FFF73BFC02001E
:103A80007B69D31A022B01D903232AE0174B1A684A
:103A900080239B041340F0D122E07B689B6A012BBA
:103AA00001D101231DE0114BDB68BB61BA698023A2
:103AB0005B021A407B68DB6A9A420FD1BA69F02335
:103AC0009B031A407B681B6B9A4207D1BA69C023DB
:103AD0001B041A407B685B6B9A4201D0012300E013
:103AE00000231800BD460AB0B0BDC0460010024019
:103AF000FFFF02FFFFFFFFFEB0B584B000AF7860AC
:103B000039607B68002B01D1012328E1964B1B68AB
:103B1000012213403A689A421ED9934B1B68012236
:103B200093431900904B3A680A431A60FFF7E2FB8F
:103B30000300FB6009E0FFF7DDFB0200FB68D31A1E
:103B40008A4A934201D9032309E1874B1B6801226A
:103B500013403A689A42EED17B681B6802221340F8
:103B600009D0834BDB68F022934319007B689A6885
:103B70007F4B0A43DA607B681B680122134000D147
:103B800089E07B685B68022B07D1794B1A68802338
:103B90009B02134020D10123E1E07B685B68032B8B
:103BA00007D1734B1A6880239B04134014D101235F
:103BB000D5E07B685B68012B06D16D4B1B68042246
:103BC000134009D10123CAE0694B1A6880239B0086
:103BD000134001D10123C2E0654BDB68032293430C
:103BE00019007B685A68624B0A43DA60FFF782FB70
:103BF0000300FB607B685B68022B11D109E0FFF7D3
:103C000079FB0200FB68D31A584A934201D9032377
:103C1000A5E0574BDB680C221340082BEFD13AE0AC
:103C20007B685B68032B11D109E0FFF763FB02009F
:103C3000FB68D31A4D4A934201D903238FE04C4BC2
:103C4000DB680C2213400C2BEFD124E07B685B680F
:103C5000012B1BD109E0FFF74DFB0200FB68D31AD3
:103C6000424A934201D9032379E0414BDB680C229D
:103C70001340042BEFD10EE0FFF73CFB0200FB6882
:103C8000D31A3A4A934201D9032368E0384BDB68E0
:103C90000C221340F0D1344B1B68012213403A68C8
:103CA0009A421ED2304B1B680122934319002E4BBF
:103CB0003A680A431A60FFF71DFB0300FB6009E046
:103CC000FFF718FB0200FB68D31A284A934201D978
:103CD000032344E0244B1B68012213403A689A42B4
:103CE000EED17B681B680422134009D0204BDB68AF
:103CF000204A134019007B68DA681D4B0A43DA60DA
:103D00007B681B68082213400AD0194BDB681A4AEB
:103D1000134019007B681B69DA00154B0A43DA600F
:103D200000F032F80100124BDB681B090F22134030
:103D3000124AD35C0A00DA40114B1A60114B1B681F
:103D40000B257C191800FFF78FFA030023707B19ED
:103D50001B78002B02D07B191B7800E00023180091
:103D6000BD4604B0B0BDC04600200240881300002C
:103D700000100240FFF8FFFFFFC7FFFF345F00089D
:103D8000000000200400002080B586B000AF3C4B4E
:103D9000DB68FB60FB680C2213400C2B13D05CD853
:103DA000042B02D0082B0BD057E0354B1B68102298
:103DB000134002D0334B3B615DE0334B3B615AE033
:103DC000324B3B6157E0FB689B0C0F221340304A9B
:103DD000D35CBB60FB689B0D0322134001337B6007
:103DE000274BDA6880235B0213400FD0B9680A00C2
:103DF0005201521A93019B1ADB005B185B0279682F
:103E00001800FCF7A9F903007B6123E01C4B1B6839
:103E1000102213400FD0B9680A005201521A9301C0
:103E20009B1ADB005B181B0279681800FCF794F9F9
:103E300003007B610EE0B9680A005201521A930137
:103E40009B1ADB005B189B0279681800FCF784F969
:103E500003007B617B693B610DE0094B5B685B0B99
:103E6000072213403B603B680133802212029A40D4
:103E700013003B61C0463B691800BD4606B080BDDB
:103E80000010024000093D000024F40000127A00F6
:103E90004C5F000880B500AF024B1B681800BD46A0
:103EA00080BDC0460000002080B500AFFFF7F2FFE4
:103EB0000100064BDB681B0A07221340044AD35C4F
:103EC000D9400B001800BD4680BDC046001002401E
:103ED000445F000880B500AFFFF7DCFF0100064B30
:103EE000DB68DB0A07221340044AD35CD9400B008D
:103EF0001800BD4680BDC04600100240445F000867
:103F000080B586B000AF786017203B1800221A7089
:103F10007B681B682022134000D1C7E09B4B9A6B43
:103F200080235B05134009D1984B9A6B974B8021F6
:103F300049050A439A633B1801221A70944B1A6888
:103F400080235B0013401AD1914B1A68904B80215B
:103F500049000A431A60FFF7CDF903003B6108E00E
:103F6000FFF7C8F902003B69D31A642B01D9032378
:103F700007E1874B1A6880235B001340F0D0834B26
:103F80001A68C0239B031340FB607B685A68C023F8
:103F90009B031340FA689A4213D07B685A68C02387
:103FA0009B021A40C0239B029A420AD1774B1A689F
:103FB00080239B021A4080239B029A4201D1012355
:103FC000DFE0724B1A6DC0239B021340FB60FB685D
:103FD000002B3BD07B685A68C0239B021340FA68D1
:103FE0009A4233D07B681B68202213402ED0674B47
:103FF0001B6D684A1340FB60644B1A6D634B802154
:1040000009030A431A65614B1A6D604B62490A4005
:104010001A655E4BFA681A65FA6880235B001340E4
:1040200014D0FFF767F903003B6109E0FFF762F97D
:1040300002003B69D31A594A934201D90323A0E0F5
:10404000524B1A6D80239B001340EFD07B681B6896
:10405000202213401FD07B685A68C0239B021A405D
:10406000C0239B029A420CD1484B1B684C4A134018
:1040700019007B685A68C0239B031A40434B0A43CC
:104080001A60424B196D7B685A68C0239B021A4024
:104090003E4B0A431A651723FB181B78012B05D1E9
:1040A0003A4B9A6B394B3F490A409A637B681B68CD
:1040B0000122134009D0354BDB6C032293431900D6
:1040C0007B689A68314B0A43DA647B681B6802227A
:1040D000134009D02D4BDB6C0C22934319007B68F5
:1040E000DA682A4B0A43DA647B681B6804221340AF
:1040F00009D0264BDB6C2C4A134019007B681A69E7
:10410000224B0A43DA647B681B680822134009D0FB
:104110001E4BDB6C254A134019007B685A691B4B08
:104120000A43DA647B681A6880235B00134009D075
:10413000164BDB6C174A134019007B689A69134BC6
:104140000A43DA647B681B684022134009D00F4B96
:10415000DB6C174A134019007B681A6A0B4B0A4341
:10416000DA647B681B688022134009D0074BDB6C44
:10417000104A134019007B68DA69044B0A43DA6479
:1041800000231800BD4606B080BDC04600100240A6
:1041900000700040FFFFFCFFFFFFF7FF88130000E7
:1041A000FFFFCFFFFFFFFFEFFFF3FFFFFFCFFFFF9B
:1041B000FFFFFFFBFFFFF3FF80B586B000AF786025
:1041C000396000237B610023FB6000233B6155E1E4
:1041D0003B681B6801217A6991400A001340FB602B
:1041E000FB68002B00D146E13B685B68032213406B
:1041F000012B05D03B685B6803221340022B30D1B2
:104200007B689B683B617B695B0003229A401300DB
:10421000DA433B6913403B613B68DA687B695B00CA
:104220009A4013003A6913433B617B683A699A608C
:104230007B685B683B6101227B699A401300DA432B
:104240003B6913403B613B685B681B0901221A40D4
:104250007B699A4013003A6913433B617B683A6972
:104260005A603B685B6803221340032B17D07B68BE
:10427000DB683B617B695B0003229A401300DA43F1
:104280003B6913403B613B689A687B695B009A40DD
:1042900013003A6913433B617B683A69DA603B6813
:1042A0005B6803221340022B23D17B69DA087B6809
:1042B00008329200D3583B617B69072213409B0070
:1042C0000F229A401300DA433B6913403B613B687D
:1042D0001A697B6907210B409B009A4013003A69D9
:1042E00013433B617B69DA087B68083292003969C5
:1042F000D1507B681B683B617B695B0003229A405D
:104300001300DA433B6913403B613B685B6803225F
:104310001A407B695B009A4013003A6913433B6182
:104320007B683A691A603B685A68C0239B02134055
:1043300000D1A0E0574B5A6B564B01210A435A63F8
:10434000554A7B699B0802339B009B583B617B6904
:10435000032213409B000F229A401300DA433B696B
:1043600013403B617A68A023DB059A421FD07B682B
:104370004A4A934219D07B68494A934213D07B68DA
:10438000484A93420DD07B68474A934207D07B68E6
:10439000464A934201D105230AE0062308E004239C
:1043A00006E0032304E0022302E0012300E00023EF
:1043B0007A6903210A40920093403A6913433B61B2
:1043C00035497B699B0802339B003A695A50384B48
:1043D0009B683B61FB68DA433B6913403B613B6888
:1043E0005A6880235B03134003D03A69FB68134388
:1043F0003B612F4B3A699A602D4BDB683B61FB6850
:10440000DA433B6913403B613B685A6880239B0356
:10441000134003D03A69FB6813433B61244B3A696C
:10442000DA60234B5B683B61FB68DA433B6913400E
:104430003B613B685A6880239B02134003D03A6972
:10444000FB6813433B611A4B3A695A60184B1B686F
:104450003B61FB68DA433B6913403B613B685A6848
:1044600080235B02134003D03A69FB6813433B612E
:104470000F4B3A691A607B6901337B613B681A68AC
:104480007B69DA40131E00D0A2E6C046C046BD4696
:1044900006B080BD00100240000001400004005042
:1044A00000080050000C005000100050001C00508C
:1044B0000004014080B582B000AF786008001100B0
:1044C000BB1C021C1A807B1C0A1C1A707B1C1B78EC
:1044D000002B04D0BB1C1A887B689A6103E0BB1CCC
:1044E0001A887B689A62C046BD4602B080BD80B51E
:1044F00084B000AF78600A00BB1C1A807B685B69DF
:10450000FB60BB1C1B88FA6813401A04FB68DB4382
:10451000B91C09880B401A437B689A61C046BD46A6
:1045200004B080BD80B582B000AF0200BB1D1A8010
:10453000094B5B69BA1D1288134008D0064BBA1D9F
:1045400012885A61BB1D1B88180000F007F8C0468E
:10455000BD4602B080BDC0460004014080B582B0B7
:1045600000AF0200BB1D1A80C046BD4602B080BD30
:1045700080B584B000AF78600F23FB1800221A705A
:104580007B6825229B5CDBB2022B08D07B6804226F
:10459000DA637B68242200219954012324E07B689C
:1045A0001B681A687B681B680E218A431A607B6847
:1045B0001B681A687B681B6801218A431A607B6844
:1045C0005B6C1C221A407B681B6C012191400A0025
:1045D0005A607B682522012199547B68242200219E
:1045E00099540F23FB181B781800BD4604B080BDFA
:1045F00080B584B000AF78600F217B1800221A705C
:104600007B6825229B5CDBB2022B06D07B680422F0
:10461000DA637B1801221A702AE07B681B681A682B
:104620007B681B680E218A431A607B681B681A68C6
:104630007B681B6801218A431A607B685B6C1C22C3
:104640001A407B681B6C012191400A005A607B680C
:104650002522012199547B682422002199547B68EA
:104660009B6B002B04D07B689B6B7A68100098478B
:104670000F23FB181B781800BD4604B080BD000056
:1046800080B582B000AF0200FB1D1A70FB1D1B78C5
:104690007F2B09D8FB1D1B781A001F231A40044BDF
:1046A000012191400A001A60C046BD4602B080BD9B
:1046B00000E100E090B583B000AF02003960FB1D5F
:1046C0001A70FB1D1B787F2B28D82F4AFB1D1B78E7
:1046D0005BB29B08C0339B009B58FA1D12781100F7
:1046E00003220A40D200FF2191400A00D2431A401F
:1046F00011003B689B01FF221A40FB1D1B7818002C
:1047000003230340DB009A401F48FB1D1B785BB26C
:104710009B080A43C0339B001A5031E01B4AFB1D23
:104720001B7819000F230B40083B9B0806339B00A6
:10473000D31804331B68FA1D1278110003220A40B3
:10474000D200FF2191400A00D2431A4011003B6879
:104750009B01FF221A40FB1D1B7818000323034016
:10476000DB009A400948FB1D1B781C000F232340E7
:10477000083B9B080A4306339B00C31804331A60A6
:10478000C046BD4603B090BD00E100E000ED00E092
:1047900080B582B000AF78607B685A1E80235B04CE
:1047A0009A4201D3012310E00A4B7A68013A5A6019
:1047B00001235B4203211800FFF77CFF054B002219
:1047C0009A60044B07221A6000231800BD4602B00D
:1047D00080BDC04610E000E080B584B000AFB96095
:1047E0007A600F217B18021C1A70BA687B181B783C
:1047F0005BB211001800FFF75DFFC046BD4604B074
:1048000080BD80B582B000AF0200FB1D1A70FB1D99
:104810001B785BB21800FFF733FFC046BD4602B0FD
:1048200080BD80B582B000AF78607B681800FFF76C
:10483000AFFF03001800BD4602B080BD80B582B056
:1048400000AF78607B68002B01D1012383E07B6897
:104850005B6A002B09D17B685A6882235B009A420D
:1048600009D07B680022DA6105E07B6800221A61CA
:104870007B6800225A617B6800229A627B68512221
:104880009B5CDBB2002B07D17B685022002199543E
:104890007B681800FDF7D8FE7B68512202219954ED
:1048A0007B681B681A687B681B6840218A431A6012
:1048B0007B685A6882235B001A407B68996884236E
:1048C0001B020B401A437B68D96880231B010B40F5
:1048D0001A437B681B6902210B401A437B685B69A2
:1048E00001210B401A437B68996980239B000B4090
:1048F0001A437B68DB6938210B401A437B681B6ACB
:1049000080210B401A4311007B689A6A80239B0127
:104910001A407B681B680A431A607B689B691B0C02
:104920000422134019007B685B6A10221A407B68DE
:104930001B680A435A607B681B68DA697B681B68DE
:1049400007490A40DA617B6800225A657B68512278
:104950000121995400231800BD4602B080BDC04615
:10496000FFF7FFFF80B588B000AFF860B9603B602B
:10497000BB1D1A80FEF7BEFC0300FB611A23FB1867
:10498000BA1D12881A80FB6851229B5CDBB2012B96
:1049900001D0022332E1BB68002B03D0BB1D1B8872
:1049A000002B01D1012329E1FB6850229B5C012BE4
:1049B00001D1022322E1FB68502201219954FB68B6
:1049C000512203219954FB6800225A65FB68BA689A
:1049D0001A63FB68BA1D12889A86FB68BA1D128892
:1049E000DA86FB6800229A63FB6800229A87FB68DC
:1049F0000022DA87FB6800225A64FB6800221A64EE
:104A0000FB689A6880231B029A4210D1FB681B68DE
:104A10001A68FB681B6840218A431A60FB681B68A0
:104A20001A68FB681B688021C9010A431A60FB6889
:104A30001B681B6840221340402B07D0FB681B6893
:104A40001A68FB681B6840210A431A60FB68DA6831
:104A500080231B019A4253D1FB685B68002B04D072
:104A60001A23FB181B88012B44D1FB681B6B1A8887
:104A7000FB681B68DA60FB681B6B9A1CFB681A6397
:104A8000FB68DB8E9BB2013B9AB2FB68DA8631E0B1
:104A9000FB681B689B6802221340022B12D1FB6843
:104AA0001B6B1A88FB681B68DA60FB681B6B9A1C1F
:104AB000FB681A63FB68DB8E9BB2013B9AB2FB6812
:104AC000DA8617E0FEF716FC0200FB69D31A3A6893
:104AD0009A4202D83B68013302D13B68002B09D1CE
:104AE000FB68512201219954FB68502200219954FE
:104AF000032383E0FB68DB8E9BB2002BC8D154E01C
:104B0000FB685B68002B04D01A23FB181B88012B61
:104B100046D1FB681A6BFB681B680C3312781A705D
:104B2000FB681B6B5A1CFB681A63FB68DB8E9BB22D
:104B3000013B9AB2FB68DA8632E0FB681B689B682F
:104B400002221340022B13D1FB681A6BFB681B680F
:104B50000C3312781A70FB681B6B5A1CFB681A63C3
:104B6000FB68DB8E9BB2013B9AB2FB68DA8617E0EA
:104B7000FEF7C0FB0200FB69D31A3A689A4202D8DA
:104B80003B68013302D13B68002B09D1FB685122FD
:104B900001219954FB6850220021995403232DE0F0
:104BA000FB68DB8E9BB2002BC7D1FA693968FB68C2
:104BB000180000F0B5F8031E02D0FB6820225A65E9
:104BC000FB689B68002B0AD100237B61FB681B6894
:104BD000DB687B61FB681B689B687B617B69FB68AA
:104BE000512201219954FB68502200219954FB68FD
:104BF0005B6D002B01D0012300E000231800BD46AF
:104C000008B080BD80B588B000AFF860B9603B6087
:104C1000FB1D1A70FEF76EFB0200BB6A9B1A3A6816
:104C2000D318FB61FEF766FB0300BB613A4B1B68C0
:104C30005B011B0DFA6953437B6159E03B6801330B
:104C400056D0FEF757FB0200BB69D31AFA699A42A5
:104C500002D9FB69002B42D1FB681B685A68FB68CC
:104C60001B68E0218A435A60FB685A6882235B0014
:104C70009A4213D1FB689A6880231B029A4205D09E
:104C8000FB689A688023DB009A4207D1FB681B68A7
:104C90001A68FB681B6840218A431A60FB689A6A9D
:104CA00080239B019A4210D1FB681B681A68FB683D
:104CB0001B681A490A401A60FB681B681A68FB687F
:104CC0001B68802189010A431A60FB685122012177
:104CD0009954FB68502200219954032318E07B6902
:104CE000002B02D10023FB6102E07B69013B7B6169
:104CF000FB681B689B68BA681340BA68D31A5A42AB
:104D00005341DBB21A00FB1D1B789A4296D1002357
:104D10001800BD4608B080BD00000020FFDFFFFF87
:104D200080B588B002AFF860B9607A60BA68F86898
:104D30007B680093130001220221FFF763FF031E2B
:104D400007D0FB685B6D20221A43FB685A6503237A
:104D500037E01E4B1B681E491800FBF7FDF90300E6
:104D60001A0013005B019B1A9B009B18DB007B6100
:104D7000FB685A6882235B009A4212D1BA68F868CD
:104D80007B680093130000228021FFF73BFF031E86
:104D900016D0FB685B6D20221A43FB685A6503231B
:104DA0000FE07B69002B0AD07B69013B7B61FB68CC
:104DB0001B689B6880221340802BF2D000E0C04625
:104DC00000231800BD4606B080BDC046000000208C
:104DD00000366E0180B582B000AF78607B68002B32
:104DE00001D1012344E07B68DB6F002B07D17B6896
:104DF0007822002199547B681800FDF76BFC7B68D2
:104E00002422DA677B681B681A687B681B680121AB
:104E10008A431A607B685B6A002B03D07B681800AA
:104E200000F0E6FD7B68180000F044FB0300012B56
:104E300001D101231CE07B681B685A687B681B68F2
:104E40000D490A405A607B681B689A687B681B683A
:104E50002A218A439A607B681B681A687B681B68F2
:104E600001210A431A607B68180000F075FE0300F8
:104E70001800BD4602B080BDFFB7FFFF90B5ABB0D4
:104E800000AF78607B681B68DB69A422B9180B60EF
:104E90007B681B681B68A02039180B607B681B6847
:104EA0009B689C2179180B601100BB181B68994AFC
:104EB00013409822BC182360BB181B68002B14D128
:104EC0007B181B68202213400FD03B181B68202240
:104ED00013400AD07B689B6E002B00D1BEE27B683A
:104EE0009B6E7A6810009847B8E29823FB181B68FD
:104EF000002B00D114E19C23FB181B6801221340F6
:104F000006D1A023FB181B68834A134000D107E198
:104F1000A423FB181B680122134012D0A023FB1806
:104F20001A6880235B0013400BD07B681B6801224A
:104F30001A627B6884229B5801221A437B68842171
:104F40005A50A423FB181B680222134011D09C2343
:104F5000FB181B68012213400BD07B681B680222E0
:104F60001A627B6884229B5804221A437B6884213E
:104F70005A50A423FB181B680422134011D09C2311
:104F8000FB181B68012213400BD07B681B680422AE
:104F90001A627B6884229B5802221A437B68842110
:104FA0005A50A423FB181B680822134017D0A023D3
:104FB000FB181B682022134005D19C23FB181B689B
:104FC000012213400BD07B681B6808221A627B68A1
:104FD00084229B5808221A437B6884215A50A423B8
:104FE000FB181A6880231B01134013D0A023FB1861
:104FF0001A688023DB0413400CD07B681B68802276
:1050000012011A627B6884229B5820221A437B6813
:1050100084215A507B6884229B58002B00D11FE2C8
:10502000A423FB181B68202213400ED0A023FB18DA
:105030001B682022134008D07B689B6E002B04D095
:105040007B689B6E7A68100098477B6884229B5827
:1050500094217A1813607B681B689B684022134078
:10506000402B04D07B181B682822134047D07B6854
:10507000180000F089FE7B681B689B684022134083
:10508000402B37D1EFF310833B663B6E90203A18EC
:10509000136001237B667B6E83F31088C0467B68B8
:1050A0001B689A687B681B6840218A439A603B189A
:1050B0001B68BB66BB6E83F31088C0467B685B6F62
:1050C000002B12D07B685B6F144A9A637B685B6F1E
:1050D0001800FFF78DFA031E1AD07B685B6F9A6B7E
:1050E0007B685B6F1800904712E07B68180000F047
:1050F000CDF90DE07B68180000F0C8F908E07B6886
:10510000180000F0C3F97B68842200219950A7E1C0
:10511000C046A5E10F08000020010004515E000810
:105120007B681B6E012B00D059E1A423FB181B6880
:105130001022134000D152E1A023FB181B6810225B
:10514000134000D14BE17B681B6810221A627B6818
:105150001B689B6840221340402B00D0BFE07B6857
:105160005B6F1B685A687E217B181A807B181B882E
:10517000002B00D195E07B6858229B5A7A18128840
:105180009A4200D38DE07B687A185A2112885A52CD
:105190007B685B6F1B681B68202213406FD1EFF3A5
:1051A00010833B633B6BBB6701237B637B6B83F3A8
:1051B0001088C0467B681B681A687B681B68AD490D
:1051C0000A401A60BB6FBB63BB6B83F31088C04699
:1051D000EFF31083FB63FB6B7B6701233B643B6C4A
:1051E00083F31088C0467B681B689A687B681B68DD
:1051F00001218A439A607B6F7B647B6C83F3108808
:10520000C046EFF31083BB64BB6C3B670123FB64B8
:10521000FB6C83F31088C0467B681B689A687B68C8
:105220001B6840218A439A603B6F3B653B6D83F36B
:105230001088C0467B688022202199507B6800221C
:105240001A66EFF310837B657B6DFB660123BB65FC
:10525000BB6D83F31088C0467B681B681A687B6847
:105260001B6810218A431A60FB6EFB65FB6D83F39C
:105270001088C0467B685B6F1800FFF779F97B6880
:1052800002225A667B6858229A5A7B685A215B5AD6
:105290009BB2D31A9AB27B681100180000F0FEF896
:1052A000E0E07B6858229B5A7E22BA1812889A4204
:1052B00000D0D7E07B685B6F1B681B68202213401F
:1052C000202B00D0CEE07B6802225A667B685822F1
:1052D0009A5A7B681100180000F0E0F8C2E07B6881
:1052E0005822995A7B685A229B5A9AB28E203B18B0
:1052F0008A1A1A807B685A229B5A9BB2002B00D1D3
:10530000B2E03B181B88002B00D1ADE0EFF3108317
:10531000FB60FB6888243A19136001233B613B69F9
:1053200083F31088C0467B681B681A687B681B681B
:1053300051490A401A603B191B687B617B6983F302
:105340001088C046EFF31083BB61BB6984243A190F
:1053500013600123FB61FB6983F31088C0467B68FF
:105360001B689A687B681B6801218A439A603B1915
:105370001B683B623B6A83F31088C0467B688022CF
:10538000202199507B6800221A667B6800229A6669
:10539000EFF310837B627B6A80243A191360012348
:1053A000BB62BB6A83F31088C0467B681B681A68BF
:1053B0007B681B6810218A431A603B191B68FB62DB
:1053C000FB6A83F31088C0467B6802225A663B184A
:1053D0001A887B681100180000F060F844E0A423EC
:1053E000FB181A6880235B03134010D09C23FB1822
:1053F0001A688023DB03134009D07B681B68802276
:1054000052031A627B68180000F060FD2FE0A423AD
:10541000FB181B68802213400FD0A023FB181B68C9
:105420008022134009D07B68DB6E002B1ED07B6886
:10543000DB6E7A681000984718E0A423FB181B68FD
:105440004022134013D0A023FB181B6840221340B6
:105450000DD07B68180000F00EFD08E0C04606E0A5
:10546000C04604E0C04602E0C04600E0C046BD467B
:105470002BB090BDFFFEFFFFDFFEFFFF80B582B0C7
:1054800000AF7860C046BD4602B080BD80B582B036
:1054900000AF7860C046BD4602B080BD80B582B026
:1054A00000AF78600A00BB1C1A80C046BD4602B03F
:1054B00080BD0000B0B58EB000AFF8611A2318228D
:1054C0009B18DB1900221A70FB699A68FB691B693B
:1054D0001A43FB695B691A43FB69DB6913437B630E
:1054E000FB691B681B68C34A13401900FB691B68F2
:1054F0007A6B0A431A60FB691B685B68BE4A1340FB
:105500001900FB69DA68FB691B680A435A60FB698A
:105510009B697B63FB691B68B84A934204D0FB69B3
:105520001B6A7A6B13437B63FB691B689B68B44AF5
:1055300013401900FB691B687A6B0A439A60FB6988
:105540001B68B04A934231D1AF4BDB6C032213404E
:10555000032B1DD023D8022B0CD020D8002B02D037
:10556000012B0ED01BE01B2318229B18DB190122F4
:105570001A70B4E01B2318229B18DB1902221A7040
:10558000ADE01B2318229B18DB1904221A70A6E039
:105590001B2318229B18DB1908221A709FE01B237B
:1055A00018229B18DB1910221A7098E0FB691B68FF
:1055B000964A934231D1944BDB6C0C2213400C2B56
:1055C0001DD023D8082B0CD020D8002B02D0042BC0
:1055D0000ED01BE01B2318229B18DB1900221A7027
:1055E0007DE01B2318229B18DB1902221A7076E03B
:1055F0001B2318229B18DB1904221A706FE01B234F
:1056000018229B18DB1908221A7068E01B23182245
:105610009B18DB1910221A7061E0FB691B687C4A39
:10562000934206D11B2318229B18DB1900221A7003
:1056300055E0FB691B68774A934206D11B23182269
:105640009B18DB1900221A7049E0FB691B686B4A42
:1056500093423ED16C4BDA6CC0231B011340C02235
:105660001201934227D0C022120193422AD88022ED
:105670001201934211D080221201934222D8002BB2
:1056800004D08022D20093420ED01BE01B231822AC
:105690009B18DB1900221A7021E01B2318229B188B
:1056A000DB1902221A701AE01B2318229B18DB193F
:1056B00004221A7013E01B2318229B18DB190822FE
:1056C0001A700CE01B2318229B18DB1910221A7089
:1056D00005E01B2318229B18DB1910221A70FB69A6
:1056E0001B68464A934200D09AE01B2318229B185D
:1056F000DB191B78082B1DD020DC042B15D01DDCFA
:10570000002B02D0022B05D018E0FEF7CDFB0300E2
:10571000FB621CE03C4B1B681022134002D03E4B46
:10572000FB6214E03D4BFB6211E0FEF72DFB030032
:10573000FB620CE080231B02FB6208E00023FB629B
:105740001A2318229B18DB1901221A70C046FB6A23
:10575000002B00D133E1FB695A6813005B009B18F2
:10576000FA6A9A4205D3FB695B681B03FA6A9A429C
:1057700006D91A2318229B18DB1901221A701EE180
:10578000FB6A3B6100237B6139697A690B001B0E60
:10579000100005021D430B001C02FB695B685B08DF
:1057A000BB600023FB60B868F96800196941FB69B8
:1057B0005B683B6000237B603A687B68FAF77CFE9D
:1057C00002000B001300BB62BA6AC0239B009A421E
:1057D00009D3BA6A80235B039A4204D2FB691B682F
:1057E000BA6ADA60EBE01A2318229B18DB1901224F
:1057F0001A70E4E0F369FFEFFFCFFFFF00480040BD
:10580000FFF4FFFF00380140001002400044004058
:10581000004C00400050004000093D000024F4000E
:10582000FB69DA6980231B029A4200D070E01B23D7
:1058300018229B18DB191B78082B22D89A00674B7B
:10584000D3181B689F46FEF72FFB0300FB6221E085
:10585000FEF740FB0300FB621CE0614B1B6810225B
:10586000134002D05F4BFB6214E05F4BFB6211E020
:10587000FEF78AFA0300FB620CE080231B02FB6246
:1058800008E00023FB621A2318229B18DB1901226F
:105890001A70C046FB6A002B00D190E0FB6A5A00E8
:1058A000FB695B685B08D218FB695B681900100034
:1058B000FAF752FC0300BB62BB6A0F2B21D9BA6A0C
:1058C00080235B029A421CD2BB6A9AB20E20182433
:1058D0000319DB190F218A431A80BB6A5B089BB24C
:1058E0000722134099B20319DB190219D219128841
:1058F0000A431A80FB691B680219D2191288DA6000
:105900005DE01A2318229B18DB1901221A7056E059
:105910001B2318229B18DB191B78082B22D89A000E
:10592000324BD3181B689F46FEF7BEFA0300FB629A
:1059300021E0FEF7CFFA0300FB621CE0284B1B6856
:105940001022134002D0274BFB6214E0264BFB626F
:1059500011E0FEF719FA0300FB620CE080231B0242
:10596000FB6208E00023FB621A2318229B18DB1954
:1059700001221A70C046FB6A002B20D0FB695B68CD
:105980005A08FB6AD218FB695B6819001000FAF725
:10599000E3FB0300BB62BB6A0F2B0AD9BA6A802300
:1059A0005B029A4205D2BB6A9AB2FB691B68DA6055
:1059B00005E01A2318229B18DB1901221A70FB69D3
:1059C00000229A66FB690022DA661A2318229B18C5
:1059D000DB191B781800BD460EB0B0BD585F00083B
:1059E0000010024000093D000024F4007C5F000824
:1059F00080B582B000AF78607B685B6A0822134094
:105A00000BD07B681B685B684A4A134019007B68AF
:105A10005A6B7B681B680A435A607B685B6A012289
:105A200013400BD07B681B685B68434A1340190026
:105A30007B689A6A7B681B680A435A607B685B6A6A
:105A4000022213400BD07B681B685B683B4A134003
:105A500019007B68DA6A7B681B680A435A607B68B6
:105A60005B6A042213400BD07B681B685B68344A76
:105A7000134019007B681A6B7B681B680A435A60E5
:105A80007B685B6A102213400BD07B681B689B68A5
:105A90002C4A134019007B689A6B7B681B680A4389
:105AA0009A607B685B6A202213400BD07B681B687E
:105AB0009B68254A134019007B68DA6B7B681B687A
:105AC0000A439A607B685B6A402213401DD07B6862
:105AD0001B685B681D4A134019007B681A6C7B6861
