:020000040800F2
:1000000000500020092B0008FD28000805290008E1
:1000100000000000000000000000000000000000E0
:100020000000000000000000000000000D29000892
:100030000000000000000000172900082129000826
:10004000592B0008592B000831290008592B0008AA
:10005000592B0008592B0008592B00084929000882
:10006000592B0008592B0008592B0008592B000860
:10007000592B0008592B0008592B0008592B000850
:10008000592B0008592B0008592B000800000000CC
:10009000592B0008592B0008592B0008592B000830
:1000A000592B0008592B0008592B0008592B000820
:1000B00065290008592B000800000000592B000892
:1000C0000448054B10B5834203D0044B002B00D0ED
:1000D000984710BD0C0000200C000020000000001C
:1000E00006480749091A8B10C90FC91810B54910DD
:1000F00003D0044B002B00D0984710BD0C0000200B
:100100000C0000200000000010B5074C2378002BE5
:1001100009D1FFF7D5FF054B002B02D0044800E0C2
:1001200000BF0123237010BD0C0000200000000060
:1001300054620008054B10B5002B03D00449054854
:1001400000E000BFFFF7CCFF10BDC046000000007C
:100150001000002054620008002243088B4274D330
:1001600003098B425FD3030A8B4244D3030B8B42B8
:1001700028D3030C8B420DD3FF22090212BA030CC1
:100180008B4202D31212090265D0030B8B4219D3A2
:1001900000E0090AC30B8B4201D3CB03C01A5241C2
:1001A000830B8B4201D38B03C01A5241430B8B420A
:1001B00001D34B03C01A5241030B8B4201D30B03F3
:1001C000C01A5241C30A8B4201D3CB02C01A52411A
:1001D000830A8B4201D38B02C01A5241430A8B42DD
:1001E00001D34B02C01A5241030A8B4201D30B02C6
:1001F000C01A5241CDD2C3098B4201D3CB01C01AE0
:10020000524183098B4201D38B01C01A52414309E9
:100210008B4201D34B01C01A524103098B4201D3D7
:100220000B01C01A5241C3088B4201D3CB00C01A44
:10023000524183088B4201D38B00C01A52414308BC
:100240008B4201D34B00C01A5241411A00D20146E1
:10025000524110467047FFE701B5002000F0F0F86A
:1002600002BDC0460029F7D076E7704703460B432E
:100270007FD4002243088B4274D303098B425FD39F
:10028000030A8B4244D3030B8B4228D3030C8B42CB
:100290000DD3FF22090212BA030C8B4202D31212B1
:1002A000090265D0030B8B4219D300E0090AC30B86
:1002B0008B4201D3CB03C01A5241830B8B4201D333
:1002C0008B03C01A5241430B8B4201D34B03C01A1C
:1002D0005241030B8B4201D30B03C01A5241C30A94
:1002E0008B4201D3CB02C01A5241830A8B4201D305
:1002F0008B02C01A5241430A8B4201D34B02C01AEF
:100300005241030A8B4201D30B02C01A5241CDD293
:10031000C3098B4201D3CB01C01A524183098B42DE
:1003200001D38B01C01A524143098B4201D34B01C7
:10033000C01A524103098B4201D30B01C01A52412A
:10034000C3088B4201D3CB00C01A524183088B42B1
:1003500001D38B00C01A524143088B4201D34B009A
:10036000C01A5241411A00D201465241104670470C
:100370005DE0CA0F00D04942031000D34042534011
:1003800000229C4603098B422DD3030A8B4212D3D1
:10039000FC22890112BA030A8B420CD38901921103
:1003A0008B4208D3890192118B4204D389013AD040
:1003B000921100E08909C3098B4201D3CB01C01A15
:1003C000524183098B4201D38B01C01A5241430928
:1003D0008B4201D34B01C01A524103098B4201D316
:1003E0000B01C01A5241C3088B4201D3CB00C01A83
:1003F000524183088B4201D38B00C01A5241D9D29B
:1004000043088B4201D34B00C01A5241411A00D21B
:100410000146634652415B10104601D34042002B17
:1004200000D54942704763465B1000D3404201B596
:10043000002000F005F802BD0029F8D016E770474B
:100440007047C046844608006146FFE71FB500F0CC
:100450004FFB002801D40021C8421FBD10B500F099
:10046000D5FA4042013010BD10B500F041FB002824
:1004700001DB002010BD012010BDC04610B500F00A
:1004800037FB002801DD002010BD012010BDC04653
:1004900010B500F0E3FA002801DC002010BD0120B7
:1004A00010BDC04610B500F0D9FA002801DA0020CE
:1004B00010BD012010BDC046002B11D1002A0FD164
:1004C000002900D1002802D00021C943080007B448
:1004D000024802A14018029003BDC04665FFFFFF1D
:1004E00003B4684601B5029800F024F8019B9E46CB
:1004F00002B00CBC7047C04670B500220C4B040023
:100500000D0001F04BFD002804D12000290001F06E
:100510008DFC70BD064B00222000290001F0FEF882
:1005200001F084FC80231B069C466044F1E7C04632
:100530000000E041F0B557464E464546DE46E0B580
:1005400004000D009246994683B08B4230D82DD0DE
:100550004946504601F04AFD29000600200001F0FE
:1005600045FD331A9846203B34D49B4653465A46A1
:10057000934042461F00534693401E00AF423BD873
:10058000AF4200D179E05B46A41BBD41002B00DAED
:1005900076E0002200230092019301235A46934003
:1005A0000193012342469340009329E08242CFD930
:1005B00000220023009201930C9B002B01D01C60B1
:1005C0005D600098019903B0F0BCBB46B246A946F5
:1005D000A046F0BD42469B4620239B1A5246DA4075
:1005E000414613004A468A40170042461F4353467D
:1005F00093401E00AF42C3D9002200230092019312
:100600004346002BD8D0FB0772081A4346467B08A6
:100610000EE0AB4201D1A2420CD8A41A9D410120A8
:1006200024196D410021013E24184D41002E06D0B1
:10063000AB42EED9013E24196D41002EF8D100984D
:1006400001995B4600196941002B24DB2B005A46B7
:100650004446D3402A00E2401C005B461500002BB4
:100660002ADB26009E40330026004746BE4032006B
:10067000801A9941009001919EE7A342BCD882E77D
:100680004246202300219B1A002200910192012260
:10069000DA40019285E7424620239B1A2A0046460B
:1006A0009A402300F340444613432A00E2401C00D2
:1006B0005B461500002BD4DA42462F00202326008B
:1006C00097409B1ADE403B003343CDE7F0B5C6466A
:1006D00043025B0A9C461F00DE004B025A0A45009B
:1006E00090464A002D0E120EC40F00B5C90F9B098B
:1006F000A81A8C4221D000280DDD002A2DD1002B14
:1007000000D195E0421E012800D131E1FF2800D13F
:1007100094E0100027E0002862D0501B002D00D08C
:10072000E1E0002E00D181E0441E012800D142E129
:10073000FF2800D119E12000DAE0002800DC9CE06D
:10074000002A69D0FF2D00D178E08022D204134323
:100750001B2800DC7DE001362AE0FF2D00D16DE092
:100760008022D204134301221B2807DC2021091A0E
:100770001A008B40C240591E8B411A43B61A7301AE
:1007800000D477E0B601B709380001F011FC053854
:100790008740854200DD82E020223B00401B013083
:1007A000121A3E009340C6405A1E934100251E4334
:1007B000730704D00F233340042B00D00436730199
:1007C00037D5681CFE2D52D08E4BC0B233409B01F2
:1007D0005F0AC0053843E407204380BCB846F0BD3B
:1007E000FE206A1C104274D1002D00D0AAE0002E19
:1007F00000D1DAE00020002BEBD08022F71AD204DF
:10080000174200D1ECE09B1B134200D1F2E07D4A7D
:100810000C0013400130DAE7002B09D0421E0128FA
:1008200000D196E0FF2809D0100091E70C001E00CF
:100830000500F3089C46FF2D00D091E06346002B95
:1008400015D080276346FF031F437F02FF207F0AE6
:10085000BFE72021091A1A008B40C240591E8B4164
:100860001343F618730105D50135FF2D54D1FF2030
:100870000027AEE773079DD1DBE7002813D0501B9C
:10088000002D50D1002ED2D0411E012840D0FF288B
:100890006CD008001B286EDD15005E1C88E7594EE1
:1008A0002D1A3E4084E7FE216A1C114241D1002DE1
:1008B0006CD1002E00D190E00020002B00D188E701
:1008C000F318DF087F027F0A5B0100D481E7012073
:1008D0007FE7F71A7A0132D4002F00D054E70024C2
:1008E0000020002775E7FF2A3FD08024E404264338
:1008F00001241B2808DC35001F34241AA640C540FB
:10090000741EA6412C0034431E1B15000C0036E754
:10091000F6180235730120D501233B4A334076088F
:1009200016401E4344E7FF2A20D08021C9040E430D
:10093000B0E7FF2A9BD0F6181500760838E70C00C0
:100940009F1B21E7002E3AD1002B4ED0C4460C004D
:1009500077E7F61802257301DED4F3089C460125DB
:1009600063465F027F0AE8B233E70C00C44665E7DE
:100970000125F61A03E731002025C140281A8640D8
:10098000701E86410E431500F6186BE7002EEDD061
:10099000002B00D155E78023DB039C4500D250E7B4
:1009A000984500D34DE7C4464BE7002B97D00C0089
:1009B000474600200DE70C009E1B0135DFE6002BAB
:1009C00000D13EE78023DB039C4500D239E7984500
:1009D00000D336E70C00C44633E747460020F8E66C
:1009E000002F0BD0BF017F0AF3E680270024FF20F1
:1009F000FF03EEE69B010C005F0AEAE600240027F5
:100A0000E7E6C046FFFFFFFBFFFFFF7D70B542003A
:100A10004E024C0045026D0A120EC30F760A240ED8
:100A2000C90FFF2A10D0FF2C0CD00120A2420AD1FE
:100A3000B54208D18B420FD0002A04D12800431EB2
:100A4000984100E0012070BD0120FF2CFBD135430F
:100A5000F9D14B401800F6E70020F4E730B542002A
:100A600044024D02C30F4800640A120E6D0A000EC4
:100A7000C90FFF2A17D0FF280AD0002A1BD100284F
:100A80000AD1002D24D0002C2ED14800013830BDD1
:100A9000002D26D1002A01D1002CF6D08B4206D1A0
:100AA00058000138F3E7002C1BD1FF2813D0012098
:100AB0005B421843EBE70028F9D08B42F7D1824222
:100AC000F5DCEDDBAC42F2D80020AC42DFD2E7E748
:100AD000002CDCD0EBE7002D03D18B42E7D10020C6
:100AE000D5E702204042D2E78B42EBD0DFE7C04699
:100AF00030B5420044024D02C30F4800640A120E92
:100B00006D0A000EC90FFF2A18D0FF280DD0002A49
:100B10001CD100280DD1002D27D0002C0BD08B42EA
:100B20001BD001205B4218430FE0002D0CD1002A9E
:100B30001ED1002C1CD14800013806E0002C03D146
:100B4000FF28EED1002D16D0022030BD0028E8D0BD
:100B50008B42E6D18242E4DC04DBAC42E1D80020E7
:100B6000AC42F2D258000138EFE7002CEDD0D8E7C4
:100B70008B42D6D1F6E700208B42E6D0D1E7C046C3
:100B8000F0B5DE46454657464E46E0B587B0009282
:100B900001930B031B0B9B46CA0F4B0004008046BE
:100BA0005B0D029200D189E08A4A934238D05946BF
:100BB000420FC9000A43802109041143C200904634
:100BC000854A894692469A44002300240393009E56
:100BD000019F3B031B0B9B467B0030005B0DFD0F11
:100BE000002B00D19EE07B4A934200D18CE0594615
:100BF000720FC9000A438021090411438B467649CC
:100C0000F2008C4651466344CB1A9A460021029E5C
:100C10006E400F2C00D9EFE0704BA4001B599F468B
:100C20005A460243914600D09DE09A4602239046E0
:100C300008240393CBE72E00002200249046654B46
:100C40001B052343F60733434046190007B0F0BCA9
:100C5000BB46B246A946A046F0BD002200230024B0
:100C60009046EDE7CB464246029D03990229E2D029
:100C7000032900D143E22E000129EED0584B534402
:100C8000002B00DC93E1510700D04AE25946C9012C
:100C900006D55946534B194080238B46DB005344FD
:100CA00051498B42C8DC5946D208490711435A467C
:100CB0005B0554028846240B5B0DC1E75B4603438A
:100CC000994661D05B46002B00D1C2E1584601F045
:100CD0006FF90B235B429C460200844466461D2349
:100CE0009B1B260011005846DE400839884033001F
:100CF0000343994623008B4098463C4B00249B1AA3
:100D00009A460023039362E75A46009B1A43384BE6
:100D10009C46E244002A32D102231C4300230221D4
:100D20009B4674E75A46009B1A4322D05B46002B31
:100D300000D1A0E1584601F03BF9020003000B3A54
:100D40001D27009EBA1A19005846D6400839884017
:100D5000320002439346009A8A40264953448A4609
:100D600000219A4453E79A460323D9460C2403935F
:100D70002DE701231C43002301219B4647E7032362
:100D8000320003211C4342E7002398469A46013370
:100D9000042403931BE700238024984600260D4B70
:100DA00024034DE780244B462403234209D05B46AD
:100DB000234206D11C4324032E009046054B240BEE
:100DC0003EE780244B4624031C432403029E014B30
:100DD000240B35E7FF07000001FCFFFF6C620008F1
:100DE000FF030000FFFFFFFEFE0700000DFCFFFFFA
:100DF00001F8FFFFF3030000CB4500D220E100D152
:100E00001BE101235B429C46444648460027E244DE
:100E10005B46150E1B021D43190C2B041202009594
:100E20001D0C914602910395FFF71CFA02006A43DC
:100E30000B04210C804619438A420ED9009D0123E0
:100E4000AC465B4261449C46E0448D4205D88A42F0
:100E500003D9AC46831E98466144881A0299FFF76D
:100E600001FA039A240442430904240C03000C43AE
:100E7000A24206D90099013B8C466444A14200D8A5
:100E80000DE1A01A424612041A4393464B465946B6
:100E90001B0C1D0004930B0449460904090C0C00AB
:100EA0001B0C5C43120C6B43884651436A43250C70
:100EB000AC465B186344994203D9802149028C46B1
:100EC0006244190C24041B04240C8A181C19904237
:100ED00000D29EE000D199E03C1BA742BF41009D9B
:100EE000801A7F42C01B854200D10CE10299FFF7B6
:100EF000B9F9039A0B044243210C070019438A42B3
:100F000008D9AC466144013F8D4203D88A4201D9D9
:100F1000871E6144881A0299FFF7A4F9039A2404F2
:100F200042430904240C03000C43A24209D900994E
:100F3000013B8C466444A14203D8A24201D9831EDE
:100F400064444146A41A3A041A43049D13041B0C3A
:100F5000594347466B439C46100C47430B0CBC441B
:100F6000634468439F4203D980256D02AC466044C8
:100F70001F0C09041B04090C3F185B18BC4206D364
:100F800002D001231A4379E6002B00D176E60098BF
:100F9000511E84466444844200D2A8E0BC4200D280
:100FA000D6E000D1E0E00A00EBE701225242012145
:100FB000C91A382900DD50E61F2976DD1F2040427E
:100FC000C31A5846D8400300202904D0584669491E
:100FD000514488400243511E8A411A430723190095
:100FE0000024114013420CD00F231340042B00D1D6
:100FF000BEE0111D91429B410A005B4259075B0212
:101000001C0BD2080A439046002319E6A74200D3DE
:1010100062E75B46009D013B4F4405934F459B4172
:10102000AC465B426344C018854233D2824200D949
:1010300081E07DD0059B9B464EE7424500D9E0E626
:101040004B46DC07580843465B081C434346DF0712
:10105000DEE600F0ADFF15239C46844402006346A3
:1010600020321C2B00DC39E62300083883409946E7
:101070000023984641E600F09BFF02000300153272
:1010800020331C2A00DC5BE60099083881400022EE
:101090008B4662E68542CDD1B945CBD8C6E7A242A0
:1010A00000D8EEE6831E6444EBE633481400504457
:1010B00082405B4617008340CC407A1E9741234311
:1010C0003B431A005B46CB40510709D00F2111402A
:1010D000042905D0111D9142924152429B180A00E9
:1010E00019028BD50022012300249046A8E50A00AE
:1010F000BC4200D045E74B4500D042E7BEE5802426
:101100005B46240356E61D4B1D4A5344924500DAC4
:101110004BE7012149420A1D8A42894149428B44D9
:10112000B4E50F211140042900D1AFE51100F2E729
:10113000BC4200D87EE702235B429C4600994F44A4
:101140004F459B41E3448C465B426344C018C3E671
:101150004946009D480048458941AC4649426144A2
:101160008146023A6418C3E79945F1D30A00C2E701
:10117000002343E73E0400001E040000FF030000BC
:1011800002FCFFFFF0B557464E46DE464546E0B549
:1011900089B0009201930B031B0B9A46CA0F4B00B8
:1011A000040091465B0D00D1BCE1D84A934200D1C6
:1011B0004AE15146420FC9000A4380210904114304
:1011C000C2009046D24A8A469C1800230025039309
:1011D000009E019F3B031B0B9B46FA0F7B003000D8
:1011E0005B0D049200D16FE1C84A934200D153E1F4
:1011F0005946720FC9000A43802109041143C44AA9
:101200008B46944600216344F0001B195C1C0A2D98
:1012100000DD26E14E46049A5640F2B20092022DBD
:1012200000DCA8E10122AA40A6271500FF003A40F1
:101230003D4200D013E19027BF003D4200D016E2AE
:1012400088222A4200D0EFE1414642460904090CB7
:101250000D00170C020C0004000C4543AC460500C1
:1012600016007D43A8460D007E430392049632008B
:10127000039E75436646360CB14645444D44A84529
:1012800005D91600802252029046464404962E0C40
:10129000059666463604360CB4462D04654406951C
:1012A0005D462D0CA9465D460E002D042D0C6E43A7
:1012B000B4462E007E43B3464E4671435944884699
:1012C0006146090C414477438B4503D98022520281
:1012D000904647440E0CB0463E004644079666468C
:1012E0003704059E3F0CB4460904C9198C44664670
:1012F00005965646360CB446564637043F0C3E001B
:101300004643B04666464643B24646466046360CBD
:10131000B346039A50437A4352445A44924503D900
:1013200080267602B2465044160CB24682444046AD
:10133000120490460004000C3A004E468044604679
:101340006A4377434543704384467819170C3F1826
:10135000BD4203D9802040028146CC44059D0498BB
:10136000A946079E484488428941B14612043D047B
:10137000120CAA184A44494255184044A94640450F
:10138000AD41C8466D42AB46B24292418945894162
:10139000D044C344494252420A43AB45AD41D045D3
:1013A00089416D4249420D4359463F0CD2195219A9
:1013B00062445202C90D069D11438A4641022943E7
:1013C0004D1EA941C00D08435946490208438046B5
:1013D000D20100D473E10122430802401343524674
:1013E000D2071343984653465B089A46009B99469A
:1013F000484BE318002B00DCE5E0424652070AD0D8
:101400000F2241460A40042A05D004314145924149
:101410008846524292445246D20106D552463E4B2D
:101420001A4080239246DB00E3183C4A934200DDD9
:101430009DE04246D108524652070A4351465B0599
:101440004C02240B5B0D19E052460243904600D03B
:10145000B3E01C000223924608250393B8E6009BE4
:101460009946039B022B00D181E0032B00D1F5E0CC
:10147000039B012BBCD100230024002210004A460C
:101480001B052343D2071343190009B0F0BCBB4628
:10149000B246A946A046F0BD5B46009E1E431B4BCC
:1014A000E318002E00D181E003224E461543049A32
:1014B0005640F2B2009280221201944664440A2DF2
:1014C00000DDB7E00321ADE65B46009A134365D02B
:1014D0005B46002B00D1E2E0584600F069FD0200B7
:1014E00003000B3A1D27009EBA1A19005846D64031
:1014F0000839884032000243009893468840084AE1
:10150000E31A94460021634480E6C046FF070000CA
:1015100001FCFFFFFF030000FFFFFFFEFE070000CE
:101520000DFCFFFF53460343984630D05346002B33
:1015300000D1A2E0504600F03BFD0B235B429C46ED
:101540000200844466461D239B1B26001100504662
:10155000DE4008398840330003439A4623008B401D
:1015600098460023694C0025A41A039330E6002412
:101570000022674B82E7013D012D00D964E6009B04
:1015800099460229F3D0DA468046039170E700239A
:101590009A46013304250024039319E600220133FF
:1015A0001D4393462300002001212FE6022215430C
:1015B000002200209346022128E61C0003238046D7
:1015C0000C25039304E60121C91A382900DD52E7EE
:1015D0001F2978DD1F225242D31A5246DA401300E7
:1015E000202907D04B4A4146944652466444A240C3
:1015F000114388464246511E8A411A430723190067
:101600000024114013420BD00F231340042B7BD036
:10161000131D9342A4411A00644261076402240B23
:10162000D20800230A4329E7049BDA4699468046FC
:10163000039116E70F2D0DD1802453462403234236
:101640000CD05B46234209D11C43049B02009946FF
:101650002F4B13E7049BDA46994680468024534675
:1016600024031C4324034246294B240B06E7002392
:10167000802499462403264B00E700F099FC1523AB
:101680009C4684440200634620321C2B00DC59E750
:10169000002398462300083883409A4661E700F00B
:1016A00087FC02000300153220331C2A00DC19E7F6
:1016B00002000099083A914000208B461FE7009AEB
:1016C0001C00914694E6144B52469C4643466444A3
:1016D000A240CB401A434346A340581E8341544680
:1016E0001A43CC40530709D00F231340042B05D0D5
:1016F000131D934292415242A4181A0023028CD522
:10170000012300240022B9E6002486E70DFCFFFF38
:10171000FF0700003E0400001E040000F0B557461D
:101720004E464546DE46E0B583B0009001910E037B
:101730004D00CC0F710A009E5F00760F0E4300999A
:1017400000920193C80019037B0D9A46B446009E8F
:10175000019FFB0F9946CA4A4B0A710F1943F300C8
:10176000834698461F006D0D924500D1C4E00123C9
:101770004E465E405346B146EB1AB44200D17AE081
:10178000002B00DC24E35646002E00D1D4E0954225
:1017900000D164E10126382B16DC802212041143AB
:1017A0001F2B00DDD6E120220E004746D21ADF4073
:1017B00096403E4347469740D9403A006346571EFD
:1017C000BA415B1A9C461643861BB0428041634671
:1017D00040421F1A3B0200D438E17F027F0A002FEB
:1017E00000D114E1380000F0E3FB0300083B2021A6
:1017F0003000CA1AD0409F4002009E403A439D42AA
:1018000000DD7AE1581B0130091A37008E40C740CD
:10181000731E9E411300C2408B403E4300251700BB
:101820001E43730709D00F233340042B05D0331D0B
:10183000B342B6417642BF191E003B0200D49AE281
:101840008F4A6B1C934200D106E18E4D5B053D40F3
:101850005B0D6A07F6086D0232432D0B1B052B4307
:10186000E40723431000190003B0F0BCBB46B246A6
:10187000A946A046F0BD002B00DCC4E25646002E6F
:1018800000D0BAE046460E4300D1EAE05E1EB14603
:10189000012B00D1AAE1934200D1E0E04B460126A2
:1018A000382B11DC1F2B00DDB5E120220E0047464E
:1018B000D21A9640DF403E43474697403A00D9400F
:1018C000571EBA418C441643361886428041404226
:1018D000604407003B0200D4B8E0694B01359D42EB
:1018E00000D1B8E00121674B72081F4031400A4324
:1018F000FE0716437F0894E7634BEA1843460B4301
:101900002CD04C4530D0002A5DD0002D00D1F8E01D
:1019100043464C468C46D80863465A070243D908CA
:101920000B001343002B00D147E280252D030D430C
:101930002D03534B2D0B91E746460E4300D190E00B
:101940005E1EB146012B00D15CE1934200D186E0DE
:101950004B460126382B00DD36E721E74E460123B2
:101960005E40B1464C45CED1002A00D190E0002D1A
:1019700000D004E153466246024300D1C8E15A1E3A
:10198000012B00D1FFE13E4DAB4200D1F7E0012336
:10199000382A10DC1F2A00DDDCE120250600AD1A04
:1019A0006346A840AB40D640451EA841334303439D
:1019B0006046D040091843444345924152421E00BC
:1019C0005546571886E7314A6B1C134200D082E017
:1019D000424663460A430343002D00D0F5E0002B46
:1019E00000D16AE1002A00D075E10023C7086246F1
:1019F000614652073A43C9083DE095422FD001267F
:101A0000382B00DD60E78022120411434AE73000E2
:101A100000F0CEFA030018331F2B00DCE7E632009B
:101A2000083882409D4200DDA4E05B1B581C1F2843
:101A300000DCA4E116001F3BDE40202805D0402337
:101A40001B1A9A40531E9A4116430025730700D073
:101A5000E9E62B00D3E02B0000250022FEE6C008BB
:101A60005AE7C00862466146520702430448C90863
:101A7000834200D154E709035B050D0B5B0DEDE6D6
:101A8000FF070000FFFF7FFF01F8FFFFFE070000D8
:101A9000CC4A6B1C134276D163460343002D00D021
:101AA000DDE0002B00D150E14346C7080B439ED038
:101AB0004346C31883428041614440420D18DB080D
:101AC0002A0200D473E1C04A15406A076D021A4326
:101AD0002D0B0123C2E64346C61A63465F1AB04285
:101AE0009B415B42FF1A3B025ED432003A4300D076
:101AF00075E6002400230025B0E6B34FED1A174029
:101B00008FE65346624602435AD05A1E012B00D13B
:101B1000C8E0AE4CA34200D1FAE64C460126382A72
:101B200010DC1F2A00DD89E020239B1A0500664691
:101B300098409E40431E98416346D540D3402E4373
:101B40000643C91A43469E1BB04592415242554630
:101B50008F1A3FE61A000E00203AD640202B05D0FF
:101B60004022D31A994043460B431F007B1E9F41DE
:101B70003E4329E69449EB1A0A40944637E7434628
:101B80008C46D808C8E6914A934200D164E74246A1
:101B9000821882428041614440420918CE075208AF
:101BA0001D0016434F083CE643461E1A6346B045E7
:101BB0009241C91A01244B4652428F1A1C400EE62C
:101BC00042464C468C46D0084CE7002B00D0A3E0A0
:101BD000002A00D1E7E043464A07DB081A43130016
:101BE00001244846C9080B4304409BE6C6198642B7
:101BF0008041614440420F183B0251D40123BC464E
:101C0000F0082FE7C61B6346B0428041591A404294
:101C100001250F1ADEE51A000E00203AD640B14623
:101C2000202B05D04022D31A994043460B431F0076
:101C30003E00731E9E414B461E4345E6130065461B
:101C4000203BDD40202A05D0402366469B1A9E405B
:101C50000643B3465E46731E9E412E4372E7002B39
:101C60008DD043460B4300D1F9E66246C0085207C7
:101C7000634610438022DB081203134207D0CD08CD
:101C8000154204D14346D8082B0049070843420FA8
:101C9000C0005207C0080243190013000B4341E67D
:101CA00002251FE643461E1AB04592416346524242
:101CB000C91A4C4601258F1A8CE5002A00D118E775
:101CC00043464A07DB0801241A434B4649021C409D
:101CD0000D0B0023C2E54346C71A63465D1AB8429E
:101CE0009B415B42ED1A80231B041D4253D04246A8
:101CF000161A62468D1AB045924152420124AD1A1D
:101D00004A4614401D4278D02F4B1D400123A0E5C8
:101D100042468C46D008A5E6002A00D19FE66246DE
:101D2000C0085207634610438022DB0812031342A7
:101D3000ADD0CD081542AAD143460124D8084B4660
:101D400049071C4008432B00A1E743468C46DF08A7
:101D500000234CE613006546203BDD40202A05D0D9
:101D6000402366469B1A9E400643B3465B465A1E76
:101D700093412B431FE62B00BC46F00872E620215E
:101D80000026091A46E540444045924161445242CA
:101D900006008F1830E73A002A4300D1A9E6002355
:101DA000AC46FF0823E6802100240903BDE56A074D
:101DB0006D021A432D0B002350E500220025034B32
:101DC0004CE5C046FE070000FFFF7FFFFF07000055
:101DD000002B00D1F7E553465A1B1300002D00D10C
:101DE00090E6382A06DC802364461B041C43A44684
:101DF000340096E634000126A4E66A07F6080023BC
:101E00003243E90837E6002B00D141E653465A1B1E
:101E1000002D01D11300AEE50123382A00DDCAE50B
:101E2000802365461B041D43AC46B3E50B0002004E
:101E300070B5164D0C0382B049000020009201934A
:101E4000240B490DDE0FA94204DD1148814203DD58
:101E5000104BF01802B070BD8020400320430E4CA0
:101E6000641A1F2C08DD0D4B5B1AD8400300584242
:101E7000002EEFD11800EDE7094B009A9C460300B5
:101E800061448B40E2401343F1E7C046FE0300008B
:101E90001D040000FFFFFF7F330400001304000057
:101EA000EDFBFFFF70B542024300C40FFE201B0E86
:101EB000591C550A08420CD0E02189008C466D0758
:101EC000120B63441B051343E40723432800190046
:101ED00070BD002B14D1002D1BD0280000F068F835
:101EE0000A281CDC0B232A001B1ADA4003001533D6
:101EF0009D400E4B12031B1A5B05120B5B0DE1E7B5
:101F0000002D09D0130B802212031A436D07084BD2
:101F1000D8E700230022D5E70022054BD2E70300D3
:101F20002A000B3B9A400025E3E7C04689030000E6
:101F3000FF0700008446100062468C461900634685
:101F400000E0C0461FB500F011F9002801D40021BF
:101F5000C8421FBD10B500F055F84042013010BD19
:101F600010B500F003F9002801DB002010BD0120AE
:101F700010BDC04610B500F0F9F8002801DD0020C2
:101F800010BD012010BDC04610B500F07FF800283C
:101F900001DC002010BD012010BDC04610B500F0CE
:101FA00075F8002801DA002010BD012010BDC046E0
:101FB0001C2101231B04984201D3000C10391B0A79
:101FC000984201D3000A08391B09984201D300093D
:101FD000043902A2105C40187047C0460403020294
:101FE00001010101000000000000000010B50029FF
:101FF00003D1FFF7DDFF203002E00800FFF7D8FF34
:1020000010BDC046F0B55746DE464E464546E0B5E3
:102010000D000400E80F83460903D80F090B824620
:1020200019488C461F0369005E00490D3F0B760D71
:10203000814218D086420FD00120B1420DD1BC455B
:102040000BD1944209D1D3451CD0002905D160465B
:102050002043431E984100E00120F0BCBB46B2463D
:10206000A946A046F0BD01208E42F6D16146394313
:102070000F0017432743F0D15B465246981A431E80
:102080009841EAE70020E8E7FF070000F0B557466F
:102090004E464546DE46E0B50D000E034900490DAB
:1020A0008A46DF0FE90FBC4683B02F4F04008046FD
:1020B0000191580019039146360B090B400DBA45A2
:1020C0001DD0B8420DD05746002F2AD134430028E6
:1020D00024D10A4336D0002C41D163465800013840
:1020E00015E0114338D15346002B01D12643F4D0DB
:1020F000019B634507D1019B5800013807E0264347
:102100002AD1504521D00120019B5F42384303B0C2
:10211000F0BCBB46B246A946A046F0BD002CDCD0C0
:10212000E6E70028EFD0019B6345ECD18245EADC6D
:10213000E1DB8E42E7D8DED1C845E4D80020C845AF
:10214000E5D2D8E7002CE2D0DDE7114304D1019BB2
:102150006345D8D10020DAE702204042D7E7019B4F
:102160006345E6D0CFE7C046FF070000F0B557460D
:102170004E464546DE46E0B50D000E034900490DCA
:102180008A46DF0FE90FBC4683B02E4F040080461D
:102190000191580019039146360B090B400DBA45C1
:1021A0001ED0B8420DD05746002F27D13443002807
:1021B00033D10A4334D0002C40D163465800013853
:1021C00015E0114312D15346002B01D12643F4D020
:1021D000019B63451DD00120019B5F42384306E00F
:1021E000264303D15045F6D111431CD0022003B041
:1021F000F0BCBB46B246A946A046F0BD0028EAD0D6
:10220000019B6345E7D18245E5DC02DB8E42E2D8E3
:102210000ED0019B58000138E9E7002CCDD0D7E75C
:10222000002CE4D0D7E7019B00206345DFD0D2E744
:10223000C845D0D80020C845D9D2EAE7019B6345FC
:10224000E4D0C8E7FF07000070B50D4B0D4D5E1BD5
:10225000B610AB4205D0002408CD01349847A64201
:10226000FAD803F0F7FF084B084D5E1BB610AB42DF
:1022700005D0002408CD01349847A642FAD870BD95
:10228000206300082063000824630008206300081E
:10229000F0B50500830749D0541E002A45D003003D
:1022A0000326CAB202E00135013C3ED301332A7055
:1022B0003342F8D1032C30D9FF220A401502AD1861
:1022C0002A04AD180F2C34D92700103F3F093E01D6
:1022D000B4461E001A0010366644156055609560BD
:1022E000D56010329642F8D101373F01DB190F2734
:1022F0000C22274022403C00002A0ED03E1FB60888
:10230000B400A4461A001C1D644420C2A242FCD1A1
:1023100003240136B6009B193C40002C05D0C9B2FD
:102320001C19197001339C42FBD1F0BD030014004D
:10233000C0E72700E2E7C04680B584B000AF01F0F7
:102340002FF900F06FF800F0EFF900F0E5F800F079
:1023500083F900F0B9F98023DB012D48012219002F
:1023600002F064FA0023FB600A23FB18802292012A
:102370001A80284B7B60FB680133FB60FB680322FB
:10238000134005D10A23FB18802292011A800FE026
:10239000FB6803211800FEF74FF80B1E04D10A2337
:1023A000FB181D4A1A8003E00A23FB181B4A1A80F7
:1023B000002279680A23FB181B88180000F0CEFB66
:1023C0007B68191C181CFEF781F9031C7B60002335
:1023D0003B6011E00E4B2021180002F044FA0C4B38
:1023E0004021180002F03FFAFA239B00180001F088
:1023F00047F93B6801333B603B68012BEADD084944
:102400007868FEF745F8031E01D0024B7B60B2E707
:10241000000400500000C8422820000002200000F4
:102420000024744990B59DB000AF38243B191800C2
:1024300038231A000021FFF72BFF2423FB18180074
:1024400014231A000021FFF723FF3B001800242368
:102450001A000021FFF71CFF2D4B1B682D4A1A4064
:102460002B4B802109010A431A6021007B180A22A4
:102470001A607B180122DA607B1810221A617B181F
:1024800001225A617B1802229A627B180022DA62CA
:102490007B18802212031A637B18802212045A636D
:1024A0007B18180001F010F9031E01D000F012FA99
:1024B00024217B180F221A607B1803225A607B1894
:1024C00000229A607B180022DA607B1800221A61D1
:1024D0007B180121180001F0CBFC031E01D000F095
:1024E000F9F93B0022221A603B000022DA603B002F
:1024F000802292025A603B00180001F0BDFE031ECC
:1025000001D000F0E7F9C046BD461DB090BDC04601
:1025100000700040FFE7FFFF80B590B000AF2C23B4
:10252000FB18180014231A000021FFF7B1FE28231E
:10253000FB1800221A603B00180028231A00002113
:10254000FFF7A6FE414B424A1A60404B00225A60F8
:102550003E4B1F229A603D4B3E4ADA603B4B0022C5
:102560001A613A4B00225A61384B00229A61374B6C
:102570000022DA61354B180000F0C0FB031E01D0C9
:1025800000F0A8F92C217B1800221A707B18002279
:102590005A707B1800229A707B180022DA607B1830
:1025A00000221A617918294B0022180000F042FC21
:1025B000031E01D000F08EF928217B1801221A7029
:1025C0007B1801225A707B1801229A707B18002216
:1025D000DA7079181D4B0022180000F0D5FC031E9C
:1025E00001D000F077F93B0000221A703B00002276
:1025F0005A703B0000229A703B0000225A603B0058
:102600000022DA603B0000221A613B0000225A617E
:102610003B00F02212059A613B000022DA613B0088
:102620002022012199543B00802252005A62390035
:10263000064B0022180000F03BFD031E01D000F005
:1026400049F9C046BD4610B080BDC04628000020F4
:1026500000280040FF03000080B500AF184B194A66
:102660001A60174B822252005A60154B00229A6062
:10267000134B80221201DA60114B02221A61104BB7
:1026800000225A610E4B802292009A610C4B282244
:10269000DA610B4B00221A62094B00225A62084B86
:1026A00000229A62064B0722DA62054B180002F0FC
:1026B00081FA031E01D000F00DF9C046BD4680BD71
:1026C0004C0000200038004080B500AF144B154A84
:1026D0001A60134BE12252025A60114B00229A6099
:1026E0000F4B0022DA600E4B00221A610C4B0C22B9
:1026F0005A610B4B00229A61094B0022DA61084BA8
:1027000000221A62064B00225A62054B180002F0A2
:102710001DFD031E01D000F0DDF8C046BD4680BDA2
:10272000A40000200044004090B58BB000AF1424FA
:102730003B19180014231A000021FFF7A9FD604B74
:10274000DA6A5F4B01210A43DA625D4BDB6A0122E0
:1027500013403B613B695A4BDA6A594B02210A43E9
:10276000DA62574BDB6A02221340FB60FB68544B72
:10277000DA6A534B04210A43DA62514BDB6A0422C2
:102780001340BB60BB684E4BDA6A4D4B80210A4355
:10279000DA624B4BDB6A802213407B607B684949DD
:1027A000A023DB050022180002F040F84649474B01
:1027B0000022180002F03AF8454B002204211800CC
:1027C00002F034F83B193F4A1A603B1901225A6063
:1027D0003B1900229A603B190222DA603A19A023C1
:1027E000DB051100180001F0A3FE3B1908221A6056
:1027F0003B1902225A603B1900229A603B190322BE
:10280000DA603B1900221A613B19304A19001000A6
:1028100001F08EFE3B192C4A1A603B1901225A60C6
:102820003B1900229A603B190022DA603B19274AC3
:102830001900100001F07CFE21007B1810221A60A4
:102840007B18882252035A607B1800229A600C0081
:102850007B181E4A1900100001F06AFE21007B1847
:10286000802292011A607B18882252035A607B18DA
:1028700000229A600C007B18154A1900100001F024
:1028800057FE21007B1804221A607B1801225A602F
:102890007B1800229A607B180222DA607B180C4AAF
:1028A0001900100001F044FE00220021072002F070
:1028B0004FF9072002F061F9C046BD460BB090BD4C
:1028C0000010024002900000604000000004005030
:1028D0000008005080B500AF72B6C046064B01221A
:1028E0002021180001F0A2FF034B01224021180013
:1028F00001F09CFFC046FDE70004005080B500AF2A
:10290000C046FDE780B500AFC046FDE780B500AF2B
:10291000C046BD4680BD80B500AFC046BD4680BD47
:1029200080B500AF00F090FEC046BD4680BD0000FF
:1029300080B500AF034B180000F01CFDC046BD463B
:1029400080BDC0462800002080B500AF102001F0F7
:10295000A5FF80239B01180001F0A0FFC046BD46E3
:1029600080BD000080B500AF034B180002F042FCB0
:10297000C046BD4680BDC046A400002080B500AF63
:10298000074B5A6B064B01210A435A63044B9A6B5F
:10299000034B802149050A439A63C046BD4680BD6A
:1029A0000010024080B582B000AF78607B681B6881
:1029B0000A4A93420ED10A4B1A6D094B8021C90273
:1029C0000A431A6500220021022002F0C1F8022009
:1029D00002F0D3F8C046BD4602B080BD00280040DA
:1029E0000010024090B589B000AF78600C243B190C
:1029F000180014231A000021FFF74AFC7B681B68AB
:102A0000184A934229D1184B9A6B174B8021C90160
:102A10000A439A63144BDA6A134B02210A43DA62BF
:102A2000114BDB6A02221340BB60BB683B19A0223A
:102A300012021A6021007B1802225A607B180022C1
:102A40009A607B180322DA607B1800221A617B18D7
:102A5000064A1900100001F06BFDC046BD4609B0E2
:102A600090BDC046003800400010024000040050F5
:102A700090B589B000AF78600C243B19180014237E
:102A80001A000021FFF704FC7B681B681C4A934274
:102A900031D11C4B9A6B1B4B802189020A439A63EC
:102AA000184BDA6A174B01210A43DA62154BDB6ACD
:102AB00001221340BB60BB6821007B180C221A6006
:102AC0007B1802225A607B1800229A607B1803222E
:102AD000DA607B1804221A617A18A023DB05110042
:102AE000180001F025FD002200211C2002F030F822
:102AF0001C2002F042F8C046BD4609B090BDC04659
:102B000000440040001002400D48854600F0F0F8F7
:102B10000C480D490D4A002302E0D458C450043338
:102B2000C4188C42F9D30A4A0A4C002301E013600E
:102B30000432A242FBD3FFF787FBFFF7FDFBFEE762
:102B400000500020000000200C0000202863000836
:102B50000C00002030010020FEE70000F0B58DB031
:102B600000AFB9607A600E23FB18021C1A800021A6
:102B70007868FDF779FC031E01D000237B6054497F
:102B80007868FDF785FC031E01D0514B7B60B86867
:102B9000FFF788F900224F4BFEF7F4FA02000B0012
:102BA0001000190000224C4BFDF7EAFF02000B0059
:102BB00010001900FDF7A0FC0300BB62BB6A9AB2CB
:102BC00026257B199204920C1A80BB6A9B0B9AB241
:102BD0002426BB199204920C1A807B197A19128848
:102BE0008021C9010A431A80BB19BA1912888021B1
:102BF000C9010A431A807868FFF754F90022374B5D
:102C0000FEF7C0FA02000B00100019000022344B3E
:102C1000FDF7B6FF02000B0022203C18100019003F
:102C2000FDF76AFC0300238022203B183A18128823
:102C30002C490A431A8020243B19842292011A80CD
:102C40001E23FB18802292011A8014217B183A1946
:102C500012881A807B187A1912885A807B18BA1940
:102C600012889A807B183A181288DA807B181E2204
:102C7000BA1812881A810023FB621FE08023DB014F
:102C800019480022190001F0D1FD1423FA18FB6A3B
:102C90005B00D11801235B421448012202F01EF8A8
:102CA000031E01D0FFF716FE8023DB010E48012230
:102CB000190001F0BBFDFB6A0133FB62FB6A042BC8
:102CC000DCDD012000F0DCFCC046BD460DB0F0BDEF
:102CD0000000B4430000B04184D777410000B04009
:102CE0000080764000C0FFFF000400504C00002030
:102CF00080B500AFC046BD4680BD0000B0B584B011
:102D000000AF78600F23FB1801221A707B68002B3C
:102D100001D1012388E07B6821229B5CDBB2002B80
:102D200007D17B682022002199547B681800FFF7A7
:102D300039FE7B682122022199547B681B68DB687D
:102D400010221340102B5FD07B681B68CA225A6286
:102D50007B681B6853225A620F257C197B68180018
:102D600000F086FB0300237028003B181B78002B23
:102D70002CD17B681B689A687B681B682C490A40C9
:102D80009A607B681B6899687B685A687B681B69D6
:102D90001A437B689B691A437B681B680A439A60E5
:102DA0007B681B687A68D2681A617B681B6819693E
:102DB0007B689B681A047B681B680A431A613C188D
:102DC0007B68180000F098FB030023700F23FB18AA
:102DD0001B78002B13D17B681B68DA6C7B681B683F
:102DE00003218A43DA647B681B68D96C7B68DA69E3
:102DF0007B685B691A437B681B680A43DA647B68FB
:102E00001B68FF225A6203E00F23FB1800221A708E
:102E10000F23FB181B78002B03D17B682122012193
:102E200099540F23FB181B781800BD4604B0B0BDA1
:102E3000BFFF8FFFB0B586B000AFF860B9607A60B1
:102E400000237B61FB6820229B5C012B01D10223C4
:102E500092E0FB68202201219954FB682122022183
:102E600099547B68002B25D1FB681B689B68402226
:102E7000134002D1BB680022DA70BB681B781800CF
:102E800000F064FB03001C04BB685B78180000F0D2
:102E90005DFB03001B021C43BB689B78180000F01D
:102EA00055FB030022001A43BB68DB789B051343E4
:102EB0007B6117E0FB681B689B684022134002D1CE
:102EC000BB680022DA70BB681B781A04BB685B78A9
:102ED0001B021343BA6892781A43BB68DB789B05E0
:102EE00013437B61FB681B68CA225A62FB681B683C
:102EF00053225A6213257C19FB68180000F0B8FAB7
:102F00000300237028003B181B78002B20D1FB689E
:102F10001B687A691A490A401A60FB681B689A683C
:102F2000FB681B6817490A409A60FB681B68996830
:102F3000BB68DA68BB681B691A43FB681B680A43F5
:102F40009A603C18FB68180000F0D6FA0300237062
:102F50001323FB181B78002B03D1FB6821220121CE
:102F60009954FB681B68FF225A62FB6820220021EB
:102F700099541323FB181B781800BD4606B0B0BD4A
:102F80007F7F7F00FFFFFBFFB0B586B000AFF8602A
:102F9000B9607A6000237B61FB6820229B5C012B77
:102FA00001D102237EE0FB68202201219954FB68B5
:102FB0002122022199547B68002B0ED1BB685B78DB
:102FC0001A001023134008D0BB685B78102293438B
:102FD000DBB20A33DAB2BB685A707B68002B1CD1B3
:102FE000BB68DB78180000F0B1FA03001C04BB6872
:102FF0005B78180000F0AAFA03001B021C43BB68B0
:103000009B78180000F0A2FA030022001A43BB6864
:103010001B785B0313437B610EE0BB68DB781A040B
:10302000BB685B781B021343BA6892781A43BB688B
:103030001B785B0313437B61FB681B68CA225A62DF
:10304000FB681B6853225A6213257C19FB68180021
:1030500000F00EFA0300237028003B181B78002BA9
:103060000CD1FB681B687A6910490A405A603C1809
:10307000FB68180000F040FA030023701323FB18CC
:103080001B78002B03D1FB68212201219954FB6896
:103090001B68FF225A62FB682022002199541323E7
:1030A000FB181B781800BD4606B0B0BD3FFFFF00FF
:1030B00090B589B000AFF860B9607A60A74B1B6823
:1030C000FA22D1011800FDF747F803001A00130097
:1030D0005B019B1A9B009B18DB007B610023FB615B
:1030E0000023BB61FB6820229B5C012B01D10223E2
:1030F00030E1FB68202201219954FB682122022142
:1031000099547B68002B36D1FB681B689B68402272
:10311000134002D1BB680022DA70BB681B7818002C
:1031200000F014FA03001C04BB685B78180000F080
:103130000DFA03001B021C43BB689B78180000F0CB
:1031400005FA030022001A43BB68DB789B051A438B
:103150001400BB6820229B5C180000F0F7F9030004
:103160001B0622001A43BB68DB691A43BB685B6914
:103170001343FB6122E0FB681B689B6840221340FD
:1031800002D1BB680022DA70BB681B781A04BB68E6
:103190005B781B021343BA6892781A43BB68DB78EA
:1031A0009B051A43BB6820215B5C1B061A43BB6866
:1031B000DB691A43BB685B691343FB61BB685A68F0
:1031C000BB689B691343BB61FB681B68CA225A62D8
:1031D000FB681B6853225A62BB685A6A80235B00F3
:1031E0009A4246D1FB681B689A68FB681B685C4979
:1031F0000A409A60FB681B68DB68FF221A40FB6884
:103200001B6858490A43DA607B69013B7B617B6933
:10321000002B0DD1FB681B68FF225A62FB6821223C
:1032200003219954FB68202200219954032391E043
:10323000FB681B68DB6801221340E5D0FB681B6854
:10324000FA69DA61FB681B68BA695A64FB681B6833
:103250009A68FB681B68802149000A439A60FB68F2
:103260001B689A68FB681B68802149010A439A60C1
:1032700055E0FB681B689A68FB681B683A490A407E
:103280009A60FB681B68DB68FF221A40FB681B68BA
:1032900036490A43DA60314B1B68FA22D101180023
:1032A000FCF75AFF03001A0013005B019B1A9B00F6
:1032B0009B18DB007B617B69013B7B617B69002B99
:1032C0000DD1FB681B68FF225A62FB682122032193
:1032D0009954FB6820220021995403233AE0FB68AB
:1032E0001B68DB6802221340E5D0FB681B68FA69A3
:1032F0001A62FB681B68BA699A64FB681B689A6863
:10330000FB681B68802189000A439A60FB681B6880
:103310009A68FB681B68802189010A439A60144BF4
:103320001A68134B802189020A431A60104B9A686D
:103330000F4B802189020A439A60FB681B68FF22B9
:103340005A62FB68212201219954FB682022002146
:10335000995400231800BD4609B090BD000000201C
:10336000FFFEFFFF7FFEFFFFFFFDFFFF7FFDFFFF73
:103370000004014080B582B000AF7860214B80220C
:1033800092025A617B681B689A6880235B01134034
:1033900014D07B681B68DA6880235B0013400DD073
:1033A0007B681B68DB68FF221A407B681B68164934
:1033B0000A43DA607B68180000F02AF87B681B6813
:1033C0009A6880239B01134014D07B681B68DA68DD
:1033D00080239B0013400DD07B681B68DB68FF22B5
:1033E0001A407B681B6809490A43DA607B68180049
:1033F00000F0CDF87B68212201219954C046BD46DA
:1034000002B080BD000401407FFEFFFF7FFDFFFF93
:1034100080B582B000AF7860C046BD4602B080BDC6
:1034200080B584B000AF78600023FB607B681B68C8
:103430000E4ADA6000F01AF90300FB600AE000F0BF
:1034400015F90200FB68D21AFA239B009A4201D9AF
:10345000032306E07B681B68DB6820221340EED064
:1034600000231800BD4604B080BDC0465FFF0100C8
:1034700080B584B000AF78600023BB600F23FB18D9
:1034800000221A707B681B68DB68402213402CD135
:103490007B681B68DA687B681B6880210A43DA60F6
:1034A00000F0E4F80300BB6014E000F0DFF8020075
:1034B000BB68D21A0F203B18391809781970FA2303
:1034C0009B009A4206D97B682122042199543B181B
:1034D00001221A707B681B68DB684022134004D10C
:1034E0000F23FB181B78012BDFD10F23FB181B7850
:1034F0001800BD4604B080BD90B585B000AF7860BF
:103500000F243B1900221A707B681B68DA687B68FD
:103510001B6880218A43DA607B681B689B682022D5
:1035200013400CD17B681800FFF77AFF031E06D00A
:103530007B682122042199543B1901221A700F2320
:10354000FB181B781800BD4605B090BD80B584B04F
:1035500000AF0200FB1D1A700023FB6007E0FB6850
:103560000133FB60FB1DFA1D12780A3A1A70FB1D2D
:103570001B78092BF3D8FB68DBB21B01DAB2FB1D09
:103580001B781343DBB21800BD4604B080BD80B584
:1035900082B000AF7860C046BD4602B080BD00007A
:1035A00080B582B000AFFB1D00221A700B4B1A6869
:1035B0000A4B40210A431A60002000F011F8031E54
:1035C00003D0FB1D01221A7001E0FFF7D7F9FB1DA4
:1035D0001B781800BD4602B080BDC04600200240E6
:1035E00090B583B000AF7860144B1C68144B1B7807
:1035F0001900FA239800FCF7AFFD03001900200022
:10360000FCF7AAFD0300180001F0C7FA031E01D061
:1036100001230FE07B68032B0BD8796801235B4201
:103620000022180001F094FA064B7A681A60002311
:1036300000E001231800BD4603B090BD000000204B
:10364000080000200400002080B500AF054B1B7867
:103650001A00054B1B68D218034B1A60C046BD46C2
:1036600080BDC046080000202C01002080B500AFBE
:10367000024B1B681800BD4680BDC0462C010020CF
:1036800080B584B000AF7860FFF7F0FF0300BB6047
:103690007B68FB60FB68013305D00A4B1B781A007E
:1036A000FB689B18FB60C046FFF7E0FF0200BB68A9
:1036B000D31AFA689A42F7D8C046C046BD4604B04D
:1036C00080BDC04608000020B0B58AB000AF786069
:1036D0007B68002B02D1012300F0BFFBC94BDB68E4
:1036E0000C221340FB61C74BDA6880235B02134056
:1036F000BB617B681B680122134000D17EE0FB693F
:10370000082B07D0FB690C2B12D1BA6980235B020E
:103710009A420DD1BB4B1A6880239B02134000D103
:103720006BE07B685B68002B67D1012300F095FBA1
:103730007B685A6880235B029A4207D1B14B1A68B2
:10374000B04B802149020A431A6027E07B685A681F
:10375000A023DB029A420ED1AA4B1A68A94B802102
:10376000C9020A431A60A74B1A68A64B8021490276
:103770000A431A6012E0A34B1A68A24BA2490A40FE
:103780001A60A04B1A6880235B021340FB60FB6841
:103790009C4B1A689B4B9D490A401A607B685B688A
:1037A000002B15D0FFF762FF03007B6109E0FFF7F4
:1037B0005DFF02007B69D31A642B02D9032300F05A
:1037C0004CFB904B1A6880239B021340EFD015E00E
:1037D000FFF74CFF03007B6108E0FFF747FF0200A3
:1037E0007B69D31A642B01D9032336E3854B1A680E
:1037F00080239B021340F0D100E0C0467B681B6829
:103800000222134000D199E07B68DB687B627B6A0F
:103810002022134009D07B4B1A687A4B20210A439F
:103820001A607B6A202293437B62FB69042B05D0DC
:10383000FB690C2B3ED1BB69002B3BD1714B1B6844
:103840000422134004D07B6A002B01D1012304E33E
:103850006C4B5B686E4A134019007B681B691A0247
:10386000684B0A435A60674B1B680922934319004F
:10387000644B7A6A0A431A6000F042FC0100614B13
:10388000DB681B090F221340624AD35C0A00DA404E
:10389000614B1A60614B1B6813257C191800FFF7F8
:1038A0009FFE030023707B191B78002B46D07B19E9
:1038B0001B78D2E27B6A002B27D0524B1B6809226F
:1038C000934319004F4B7A6A0A431A60FFF7CEFE02
:1038D00003007B6108E0FFF7C9FE02007B69D31A91
:1038E000022B01D90323B8E2464B1B680422134084
:1038F000F1D0444B5B68464A134019007B681B6952
:103900001A02404B0A435A6018E03E4B1A683D4B7E
:1039100001218A431A60FFF7A9FE03007B6108E0DA
:10392000FFF7A4FE02007B69D31A022B01D90323FF
:1039300093E2344B1B6804221340F1D17B681B686F
:103940001022134000D1A2E0FB69002B40D12D4B87
:103950001A6880239B00134005D07B68DB69002B2D
:1039600001D1012379E2274B5B682D4A13401900EE
:103970007B685A6A234B0A435A60224B5B681B02DE
:10398000190A7B681B6A1A061E4B0A435A607B6839
:103990005B6A5B0B0133802212029A40194BDB6891
:1039A0001B090F210B401B49CB5CDA401A4B1A60F4
:1039B0001A4B1B6813257C191800FFF711FE030032
:1039C00023707B191B78002B61D07B191B7844E294
:1039D0007B68DB69002B40D00A4B1A68094B8021B9
:1039E00049000A431A60FFF741FE03007B6119E0BA
:1039F000FFF73CFE02007B69D31A022B12D9032386
:103A00002BE2C04600100240FFFFFEFFFFFFFBFF5E
:103A1000FFE0FFFFAC62000800000020040000206F
:103A2000FF1FFFFFCA4B1A6880239B001340DFD0A3
:103A3000C74B5B68C74A134019007B685A6AC44B7E
:103A40000A435A60C24B5B681B02190A7B681B6AF7
:103A50001A06BF4B0A435A6019E0BD4B1A68BC4BAB
:103A6000BD490A401A60FFF701FE03007B6108E0D0
:103A7000FFF7FCFD02007B69D31A022B01D9032357
:103A8000EBE1B34B1A6880239B001340F0D17B68B5
:103A90001B680822134036D07B685B69002B19D065
:103AA000AB4B1A6DAA4B01210A431A65FFF7DEFDE5
:103AB00003007B6108E0FFF7D9FD02007B69D31AA0
:103AC000022B01D90323C8E1A14B1B6D0222134035
:103AD000F1D018E09E4B1A6D9D4B01218A431A6567
:103AE000FFF7C4FD03007B6108E0FFF7BFFD0200A4
:103AF0007B69D31A022B01D90323AEE1944B1B6DD2
:103B000002221340F1D17B681B680422134000D1CC
:103B1000AEE023203B1800221A708D4B9A6B802355
:103B20005B05134009D18A4B9A6B894B802149056B
:103B30000A439A633B1801221A70884B1A68802343
:103B40005B0013401AD1854B1A68844B80214900D1
:103B50000A431A60FFF78AFD03007B6108E0FFF764
:103B600085FD02007B69D31A642B01D9032374E11C
:103B70007A4B1A6880235B001340F0D07B689A6808
:103B800080235B009A4207D1714B1A6D704B8021E4
:103B900049000A431A6531E07B689B68002B0CD111
:103BA0006B4B1A6D6A4B6C490A401A65684B1A6D6B
:103BB000674B6B490A401A6520E07B689A68A0232E
:103BC000DB009A420ED1624B1A6D614B8021C90015
:103BD0000A431A655E4B1A6D5D4B802149000A430A
:103BE0001A650BE05A4B1A6D594B5B490A401A652E
:103BF000574B1A6D564B5A490A401A657B689B68A9
:103C0000002B15D0FFF732FD03007B6109E0FFF7C1
:103C10002DFD02007B69D31A524A934201D9032336
:103C20001BE14B4B1A6D80239B001340EFD014E037
:103C3000FFF71CFD03007B6109E0FFF717FD0200A1
:103C40007B69D31A474A934201D9032305E1404BCC
:103C50001A6D80239B001340EFD12323FB181B78A0
:103C6000012B05D13A4B9A6B394B3F490A409A6375
:103C70007B681B682022134049D07B689B69002B1E
:103C800026D0334B9A68324B01210A439A60304B5D
:103C90005A6B2F4B01210A435A63344B1A6A334B38
:103CA000802189010A431A62FFF7E0FC03007B616F
:103CB00008E0FFF7DBFC02007B69D31A022B01D975
:103CC0000323CAE0224B9B6802221340F1D01EE07E
:103CD0001F4B9A681E4B01218A439A60234B1A6A34
:103CE000224B23490A401A62FFF7C0FC03007B61A4
:103CF00008E0FFF7BBFC02007B69D31A022B01D955
:103D00000323AAE0124B9B6802221340F1D17B6887
:103D10009B6A002B00D19FE0FB690C2B00D178E05F
:103D20007B689B6A022B59D1094B1A68084B1149D1
:103D30000A401A60FFF79AFC03007B611CE0FFF762
:103D400095FC02007B69D31A022B15D9032384E06A
:103D500000100240FF1FFFFFFFFEFFFF007000404A
:103D6000FFFBFFFF88130000FFFFFFEF0000014093
:103D7000FFDFFFFFFFFFFFFE3A4B1A6880239B0423
:103D80001340DCD1374BDB68374A134019007B689E
:103D9000DA6A7B681B6B1A437B685B6B1A43314B97
:103DA0000A43DA602F4B1A682E4B802149040A43DC
:103DB0001A60FFF75BFC03007B6108E0FFF756FC2D
:103DC00002007B69D31A022B01D9032345E0254B5E
:103DD0001A6880239B041340F0D03DE0214B1A6801
:103DE000204B22490A401A60FFF740FC03007B6128
:103DF00008E0FFF73BFC02007B69D31A022B01D9D4
:103E000003232AE0174B1A6880239B041340F0D148
:103E100022E07B689B6A012B01D101231DE0114B3D
:103E2000DB68BB61BA6980235B021A407B68DB6A8E
:103E30009A420FD1BA69F0239B031A407B681B6B2F
:103E40009A4207D1BA69C0231B041A407B685B6B96
:103E50009A4201D0012300E000231800BD460AB0B9
:103E6000B0BDC04600100240FFFF02FFFFFFFFFE93
:103E7000B0B584B000AF786039607B68002B01D1A9
:103E8000012328E1964B1B68012213403A689A42AD
:103E90001ED9934B1B68012293431900904B3A683B
:103EA0000A431A60FFF7E2FB0300FB6009E0FFF73B
:103EB000DDFB0200FB68D31A8A4A934201D903232F
:103EC00009E1874B1B68012213403A689A42EED100
:103ED0007B681B680222134009D0834BDB68F02209
:103EE000934319007B689A687F4B0A43DA607B68CA
:103EF0001B680122134000D189E07B685B68022BBC
:103F000007D1794B1A6880239B02134020D10123EB
:103F1000E1E07B685B68032B07D1734B1A68802351
:103F20009B04134014D10123D5E07B685B68012B0F
:103F300006D16D4B1B680422134009D10123CAE04E
:103F4000694B1A6880239B00134001D10123C2E012
:103F5000654BDB680322934319007B685A68624B08
:103F60000A43DA60FFF782FB0300FB607B685B6853
:103F7000022B11D109E0FFF779FB0200FB68D31A8D
:103F8000584A934201D90323A5E0574BDB680C2222
:103F90001340082BEFD13AE07B685B68032B11D10B
:103FA00009E0FFF763FB0200FB68D31A4D4A934216
:103FB00001D903238FE04C4BDB680C2213400C2B00
:103FC000EFD124E07B685B68012B1BD109E0FFF790
:103FD0004DFB0200FB68D31A424A934201D90323E6
:103FE00079E0414BDB680C221340042BEFD10EE04B
:103FF000FFF73CFB0200FB68D31A3A4A934201D90F
:10400000032368E0384BDB680C221340F0D1344BBB
:104010001B68012213403A689A421ED2304B1B683B
:104020000122934319002E4B3A680A431A60FFF7A6
:104030001DFB0300FB6009E0FFF718FB0200FB68B3
:10404000D31A284A934201D9032344E0244B1B6826
:10405000012213403A689A42EED17B681B68042221
:10406000134009D0204BDB68204A134019007B68BD
:10407000DA681D4B0A43DA607B681B68082213402C
:104080000AD0194BDB681A4A134019007B681B6978
:10409000DA00154B0A43DA6000F032F80100124BE7
:1040A000DB681B090F221340124AD35C0A00DA4076
:1040B000114B1A60114B1B680B257C191800FFF778
:1040C0008FFA030023707B191B78002B02D07B1919
:1040D0001B7800E000231800BD4604B0B0BDC04608
:1040E000002002408813000000100240FFF8FFFF8C
:1040F000FFC7FFFFAC6200080000002004000020A2
:1041000080B586B000AF3C4BDB68FB60FB680C22DF
:1041100013400C2B13D05CD8042B02D0082B0BD0EF
:1041200057E0354B1B681022134002D0334B3B61E4
:104130005DE0334B3B615AE0324B3B6157E0FB683B
:104140009B0C0F221340304AD35CBB60FB689B0D75
:104150000322134001337B60274BDA6880235B0224
:1041600013400FD0B9680A005201521A93019B1AEA
:10417000DB005B185B0279681800FBF7EDFF0300BA
:104180007B6123E01C4B1B68102213400FD0B968E1
:104190000A005201521A93019B1ADB005B181B02A2
:1041A00079681800FBF7D8FF03007B610EE0B9685F
:1041B0000A005201521A93019B1ADB005B189B0202
:1041C00079681800FBF7C8FF03007B617B693B61DE
:1041D0000DE0094B5B685B0B072213403B603B68BB
:1041E0000133802212029A4013003B61C0463B69B2
:1041F0001800BD4606B080BD0010024000093D0019
:104200000024F40000127A00C462000880B500AFF8
:10421000024B1B681800BD4680BDC0460000002050
:1042200080B500AFFFF7F2FF0100064BDB681B0A09
:1042300007221340044AD35CD9400B001800BD4646
:1042400080BDC04600100240BC62000880B500AFCF
:10425000FFF7DCFF0100064BDB68DB0A0722134097
:10426000044AD35CD9400B001800BD4680BDC0464F
:1042700000100240BC62000880B586B000AF7860D4
:1042800017203B1800221A707B681B6820221340FD
:1042900000D1C7E09B4B9A6B80235B05134009D18B
:1042A000984B9A6B974B802149050A439A633B18B8
:1042B00001221A70944B1A6880235B0013401AD1B4
:1042C000914B1A68904B802149000A431A60FFF70E
:1042D000CDF903003B6108E0FFF7C8F902003B6934
:1042E000D31A642B01D9032307E1874B1A68802373
:1042F0005B001340F0D0834B1A68C0239B0313402C
:10430000FB607B685A68C0239B031340FA689A429B
:1043100013D07B685A68C0239B021A40C0239B02BB
:104320009A420AD1774B1A6880239B021A40802355
:104330009B029A4201D10123DFE0724B1A6DC02328
:104340009B021340FB60FB68002B3BD07B685A68E4
:10435000C0239B021340FA689A4233D07B681B68E3
:10436000202213402ED0674B1B6D684A1340FB6020
:10437000644B1A6D634B802109030A431A65614B34
:104380001A6D604B62490A401A655E4BFA681A65FD
:10439000FA6880235B00134014D0FFF767F903002D
:1043A0003B6109E0FFF762F902003B69D31A594A01
:1043B000934201D90323A0E0524B1A6D80239B0046
:1043C0001340EFD07B681B68202213401FD07B680E
:1043D0005A68C0239B021A40C0239B029A420CD108
:1043E000484B1B684C4A134019007B685A68C0232D
:1043F0009B031A40434B0A431A60424B196D7B687A
:104400005A68C0239B021A403E4B0A431A65172381
:10441000FB181B78012B05D13A4B9A6B394B3F495E
:104420000A409A637B681B680122134009D0354B10
:10443000DB6C0322934319007B689A68314B0A4373
:10444000DA647B681B680222134009D02D4BDB6CB9
:104450000C22934319007B68DA682A4B0A43DA641A
:104460007B681B680422134009D0264BDB6C2C4A66
:10447000134019007B681A69224B0A43DA647B688F
:104480001B680822134009D01E4BDB6C254A1340E1
:1044900019007B685A691B4B0A43DA647B681A6807
:1044A00080235B00134009D0164BDB6C174A134086
:1044B00019007B689A69134B0A43DA647B681B68AE
:1044C0004022134009D00F4BDB6C174A13401900F0
:1044D0007B681A6A0B4B0A43DA647B681B6880228C
:1044E000134009D0074BDB6C104A134019007B685E
:1044F000DA69044B0A43DA6400231800BD4606B0AB
:1045000080BDC0460010024000700040FFFFFCFF6D
:10451000FFFFF7FF88130000FFFFCFFFFFFFFFEF54
:10452000FFF3FFFFFFCFFFFFFFFFFFFBFFFFF3FFE7
:1045300080B586B000AF7860396000237B610023CE
:10454000FB6000233B6155E13B681B6801217A69F0
:1045500091400A001340FB60FB68002B00D146E14C
:104560003B685B6803221340012B05D03B685B6806
:1045700003221340022B30D17B689B683B617B692F
:104580005B0003229A401300DA433B6913403B610E
:104590003B68DA687B695B009A4013003A69134311
:1045A0003B617B683A699A607B685B683B6101228A
:1045B0007B699A401300DA433B6913403B613B68D7
:1045C0005B681B0901221A407B699A4013003A6913
:1045D00013433B617B683A695A603B685B6803221E
:1045E0001340032B17D07B68DB683B617B695B0062
:1045F00003229A401300DA433B6913403B613B6856
:104600009A687B695B009A4013003A6913433B61E7
:104610007B683A69DA603B685B6803221340022BCF
:1046200023D17B69DA087B6808329200D3583B615A
:104630007B69072213409B000F229A401300DA4344
:104640003B6913403B613B681A697B6907210B405A
:104650009B009A4013003A6913433B617B69DA0877
:104660007B68083292003969D1507B681B683B61D6
:104670007B695B0003229A401300DA433B691340D5
:104680003B613B685B6803221A407B695B009A4090
:1046900013003A6913433B617B683A691A603B68CF
:1046A0005A68C0239B02134000D1A0E0574B5A6BBD
:1046B000564B01210A435A63554A7B699B080233D2
:1046C0009B009B583B617B69032213409B000F2298
:1046D0009A401300DA433B6913403B617A68A02398
:1046E000DB059A421FD07B684A4A934219D07B6807
:1046F000494A934213D07B68484A93420DD07B6865
:10470000474A934207D07B68464A934201D105232A
:104710000AE0062308E0042306E0032304E0022362
:1047200002E0012300E000237A6903210A4092009D
:1047300093403A6913433B6135497B699B080233D7
:104740009B003A695A50384B9B683B61FB68DA43DF
:104750003B6913403B613B685A6880235B0313400D
:1047600003D03A69FB6813433B612F4B3A699A6067
:104770002D4BDB683B61FB68DA433B6913403B61CF
:104780003B685A6880239B03134003D03A69FB6857
:1047900013433B61244B3A69DA60234B5B683B610E
:1047A000FB68DA433B6913403B613B685A688023EE
:1047B0009B02134003D03A69FB6813433B611A4BD9
:1047C0003A695A60184B1B683B61FB68DA433B69E6
:1047D00013403B613B685A6880235B02134003D05F
:1047E0003A69FB6813433B610F4B3A691A607B6976
:1047F00001337B613B681A687B69DA40131E00D085
:10480000A2E6C046C046BD4606B080BD00100240CC
:10481000000001400004005000080050000C00504F
:1048200000100050001C00500004014080B582B010
:1048300000AF786008001100BB1C021C1A807B1CB2
:104840000A1C1A707B1C1B78002B04D0BB1C1A8816
:104850007B689A6103E0BB1C1A887B689A62C04639
:10486000BD4602B080BD80B584B000AF78600A005C
:10487000BB1C1A807B685B69FB60BB1C1B88FA68E9
:1048800013401A04FB68DB43B91C09880B401A4328
:104890007B689A61C046BD4604B080BD80B582B0D9
:1048A00000AF0200BB1D1A80094B5B69BA1D12885C
:1048B000134008D0064BBA1D12885A61BB1D1B88D5
:1048C000180000F007F8C046BD4602B080BDC046E3
:1048D0000004014080B582B000AF0200BB1D1A8009
:1048E000C046BD4602B080BD80B584B000AF7860E0
:1048F0000F23FB1800221A707B6825229B5CDBB219
:10490000022B08D07B680422DA637B682422002112
:104910009954012324E07B681B681A687B681B6834
:104920000E218A431A607B681B681A687B681B68C3
:1049300001218A431A607B685B6C1C221A407B68E9
:104940001B6C012191400A005A607B6825220121DD
:1049500099547B682422002199540F23FB181B785B
:104960001800BD4604B080BD80B584B000AF78604B
:104970000F217B1800221A707B6825229B5CDBB21A
:10498000022B06D07B680422DA637B1801221A709E
:104990002AE07B681B681A687B681B680E218A43C3
:1049A0001A607B681B681A687B681B6801218A4350
:1049B0001A607B685B6C1C221A407B681B6C0121AF
:1049C00091400A005A607B682522012199547B6836
:1049D0002422002199547B689B6B002B04D07B68B8
:1049E0009B6B7A68100098470F23FB181B78180000
:1049F000BD4604B080BD000080B582B000AF0200AB
:104A0000FB1D1A70FB1D1B787F2B09D8FB1D1B7823
:104A10001A001F231A40044B012191400A001A601A
:104A2000C046BD4602B080BD00E100E090B583B055
:104A300000AF02003960FB1D1A70FB1D1B787F2B35
:104A400028D82F4AFB1D1B785BB29B08C0339B0004
:104A50009B58FA1D1278110003220A40D200FF2150
:104A600091400A00D2431A4011003B689B01FF228B
:104A70001A40FB1D1B78180003230340DB009A40FB
:104A80001F48FB1D1B785BB29B080A43C0339B0089
:104A90001A5031E01B4AFB1D1B7819000F230B40F5
:104AA000083B9B0806339B00D31804331B68FA1D90
:104AB0001278110003220A40D200FF2191400A001F
:104AC000D2431A4011003B689B01FF221A40FB1D94
:104AD0001B78180003230340DB009A400948FB1DA4
:104AE0001B781C000F232340083B9B080A43063316
:104AF0009B00C31804331A60C046BD4603B090BD86
:104B000000E100E000ED00E080B582B000AF786029
:104B10007B685A1E80235B049A4201D3012310E074
:104B20000A4B7A68013A5A6001235B42032118005C
:104B3000FFF77CFF054B00229A60044B07221A60A6
:104B400000231800BD4602B080BDC04610E000E062
:104B500080B584B000AFB9607A600F217B18021C69
:104B60001A70BA687B181B785BB211001800FFF747
:104B70005DFFC046BD4604B080BD80B582B000AFC9
:104B80000200FB1D1A70FB1D1B785BB21800FFF7BB
:104B900033FFC046BD4602B080BD80B582B000AFD5
:104BA00078607B681800FFF7AFFF03001800BD4670
:104BB00002B080BD80B582B000AF78607B68002B0A
:104BC00001D1012383E07B685B6A002B09D17B68FC
:104BD0005A6882235B009A4209D07B680022DA611E
:104BE00005E07B6800221A617B6800225A617B68BD
:104BF00000229A627B6851229B5CDBB2002B07D1BA
:104C00007B685022002199547B681800FDF7EAFE6A
:104C10007B685122022199547B681B681A687B6863
:104C20001B6840218A431A607B685A6882235B00B4
:104C30001A407B68996884231B020B401A437B68E7
:104C4000D96880231B010B401A437B681B69022132
:104C50000B401A437B685B6901210B401A437B6858
:104C6000996980239B000B401A437B68DB693821DC
:104C70000B401A437B681B6A80210B401A431100CA
:104C80007B689A6A80239B011A407B681B680A43F1
:104C90001A607B689B691B0C0422134019007B6817
:104CA0005B6A10221A407B681B680A435A607B6863
:104CB0001B68DA697B681B6807490A40DA617B6810
:104CC00000225A657B685122012199540023180063
:104CD000BD4602B080BDC046FFF7FFFF80B588B07B
:104CE00000AFF860B9603B60BB1D1A80FEF7BEFCE8
:104CF0000300FB611A23FB18BA1D12881A80FB6897
:104D000051229B5CDBB2012B01D0022332E1BB6854
:104D1000002B03D0BB1D1B88002B01D1012329E1EF
:104D2000FB6850229B5C012B01D1022322E1FB682E
:104D3000502201219954FB68512203219954FB68A8
:104D400000225A65FB68BA681A63FB68BA1D1288AC
:104D50009A86FB68BA1D1288DA86FB6800229A637D
:104D6000FB6800229A87FB680022DA87FB68002232
:104D70005A64FB6800221A64FB689A6880231B024D
:104D80009A4210D1FB681B681A68FB681B684021B7
:104D90008A431A60FB681B681A68FB681B688021DD
:104DA000C9010A431A60FB681B681B684022134054
:104DB000402B07D0FB681B681A68FB681B68402102
:104DC0000A431A60FB68DA6880231B019A4253D1B8
:104DD000FB685B68002B04D01A23FB181B88012B8F
:104DE00044D1FB681B6B1A88FB681B68DA60FB68A0
:104DF0001B6B9A1CFB681A63FB68DB8E9BB2013B42
:104E00009AB2FB68DA8631E0FB681B689B68022275
:104E10001340022B12D1FB681B6B1A88FB681B68BE
:104E2000DA60FB681B6B9A1CFB681A63FB68DB8EFD
:104E30009BB2013B9AB2FB68DA8617E0FEF716FCDC
:104E40000200FB69D31A3A689A4202D83B680133E0
:104E500002D13B68002B09D1FB68512201219954F2
:104E6000FB68502200219954032383E0FB68DB8E0A
:104E70009BB2002BC8D154E0FB685B68002B04D0C8
:104E80001A23FB181B88012B46D1FB681A6BFB68A1
:104E90001B680C3312781A70FB681B6B5A1CFB687A
:104EA0001A63FB68DB8E9BB2013B9AB2FB68DA8621
:104EB00032E0FB681B689B6802221340022B13D16F
:104EC000FB681A6BFB681B680C3312781A70FB685E
:104ED0001B6B5A1CFB681A63FB68DB8E9BB2013BA1
:104EE0009AB2FB68DA8617E0FEF7C0FB0200FB69A6
:104EF000D31A3A689A4202D83B68013302D13B6820
:104F0000002B09D1FB68512201219954FB685022E2
:104F10000021995403232DE0FB68DB8E9BB2002B0C
:104F2000C7D1FA693968FB68180000F0B5F8031EAC
:104F300002D0FB6820225A65FB689B68002B0AD1CF
:104F400000237B61FB681B68DB687B61FB681B6877
:104F50009B687B617B69FB68512201219954FB6846
:104F6000502200219954FB685B6D002B01D0012376
:104F700000E000231800BD4608B080BD80B588B0B1
:104F800000AFF860B9603B60FB1D1A70FEF76EFB66
:104F90000200BB6A9B1A3A68D318FB61FEF766FBF6
:104FA0000300BB613A4B1B685B011B0DFA6953435D
:104FB0007B6159E03B68013356D0FEF757FB020096
:104FC000BB69D31AFA699A4202D9FB69002B42D114
:104FD000FB681B685A68FB681B68E0218A435A60BB
:104FE000FB685A6882235B009A4213D1FB689A6877
:104FF00080231B029A4205D0FB689A688023DB005D
:105000009A4207D1FB681B681A68FB681B6840213D
:105010008A431A60FB689A6A80239B019A4210D1E6
:10502000FB681B681A68FB681B681A490A401A600B
:10503000FB681B681A68FB681B68802189010A43AA
:105040001A60FB68512201219954FB68502200210B
:105050009954032318E07B69002B02D10023FB61E4
:1050600002E07B69013B7B61FB681B689B68BA6857
:105070001340BA68D31A5A425341DBB21A00FB1DDF
:105080001B789A4296D100231800BD4608B080BD17
:1050900000000020FFDFFFFF80B588B002AFF8609E
:1050A000B9607A60BA68F8687B68009313000122DF
:1050B0000221FFF763FF031E07D0FB685B6D202210
:1050C0001A43FB685A65032337E01E4B1B681E49D1
:1050D0001800FBF741F803001A0013005B019B1A4C
:1050E0009B009B18DB007B61FB685A6882235B0096
:1050F0009A4212D1BA68F8687B68009313000022C4
:105100008021FFF73BFF031E16D0FB685B6D20225A
:105110001A43FB685A6503230FE07B69002B0AD012
:105120007B69013B7B61FB681B689B6880221340A5
:10513000802BF2D000E0C04600231800BD4606B028
:1051400080BDC0460000002000366E0180B582B0F0
:1051500000AF78607B68002B01D1012344E07B68BD
:10516000DB6F002B07D17B687822002199547B6884
:105170001800FDF77DFC7B682422DA677B681B68DA
:105180001A687B681B6801218A431A607B685B6A26
:10519000002B03D07B68180000F0E6FD7B68180048
:1051A00000F044FB0300012B01D101231CE07B68CC
:1051B0001B685A687B681B680D490A405A607B6807
:1051C0001B689A687B681B682A218A439A607B68FF
:1051D0001B681A687B681B6801210A431A607B6898
:1051E000180000F075FE03001800BD4602B080BD37
:1051F000FFB7FFFF90B5ABB000AF78607B681B686E
:10520000DB69A422B9180B607B681B681B68A020AF
:1052100039180B607B681B689B689C2179180B60B0
:105220001100BB181B68994A13409822BC182360D0
:10523000BB181B68002B14D17B181B68202213405D
:105240000FD03B181B68202213400AD07B689B6E4E
:10525000002B00D1BEE27B689B6E7A6810009847F5
:10526000B8E29823FB181B68002B00D114E19C23A3
:10527000FB181B680122134006D1A023FB181B68F2
:10528000834A134000D107E1A423FB181B680122C5
:10529000134012D0A023FB181A6880235B00134030
:1052A0000BD07B681B6801221A627B6884229B58A2
:1052B00001221A437B6884215A50A423FB181B68DF
:1052C0000222134011D09C23FB181B6801221340BB
:1052D0000BD07B681B6802221A627B6884229B5871
:1052E00004221A437B6884215A50A423FB181B68AC
:1052F0000422134011D09C23FB181B680122134089
:105300000BD07B681B6804221A627B6884229B583E
:1053100002221A437B6884215A50A423FB181B687D
:105320000822134017D0A023FB181B68202213402B
:1053300005D19C23FB181B68012213400BD07B680E
:105340001B6808221A627B6884229B5808221A4331
:105350007B6884215A50A423FB181A6880231B0100
:10536000134013D0A023FB181A688023DB041340DA
:105370000CD07B681B68802212011A627B68842231
:105380009B5820221A437B6884215A507B688422D0
:105390009B58002B00D11FE2A423FB181B6820227E
:1053A00013400ED0A023FB181B682022134008D006
:1053B0007B689B6E002B04D07B689B6E7A68100024
:1053C00098477B6884229B5894217A1813607B68E5
:1053D0001B689B6840221340402B04D07B181B683D
:1053E0002822134047D07B68180000F089FE7B68B4
:1053F0001B689B6840221340402B37D1EFF310838A
:105400003B663B6E90203A18136001237B667B6EEF
:1054100083F31088C0467B681B689A687B681B68AA
:1054200040218A439A603B181B68BB66BB6E83F3BE
:105430001088C0467B685B6F002B12D07B685B6F67
:10544000144A9A637B685B6F1800FFF78DFA031E9E
:105450001AD07B685B6F9A6B7B685B6F1800904714
:1054600012E07B68180000F0CDF90DE07B681800B1
:1054700000F0C8F908E07B68180000F0C3F97B6809
:10548000842200219950A7E1C046A5E10F08000041
:1054900020010004C96100087B681B6E012B00D04D
:1054A00059E1A423FB181B681022134000D152E1DC
:1054B000A023FB181B681022134000D14BE17B682E
:1054C0001B6810221A627B681B689B68402213408D
:1054D000402B00D0BFE07B685B6F1B685A687E2161
:1054E0007B181A807B181B88002B00D195E07B6805
:1054F00058229B5A7A1812889A4200D38DE07B6812
:105500007A185A2112885A527B685B6F1B681B6895
:10551000202213406FD1EFF310833B633B6BBB67DB
:1055200001237B637B6B83F31088C0467B681B6819
:105530001A687B681B68AD490A401A60BB6FBB6381
:10554000BB6B83F31088C046EFF31083FB63FB6BE8
:105550007B6701233B643B6C83F31088C0467B6808
:105560001B689A687B681B6801218A439A607B6F7D
:105570007B647B6C83F31088C046EFF31083BB64BD
:10558000BB6C3B670123FB64FB6C83F31088C04654
:105590007B681B689A687B681B6840218A439A6015
:1055A0003B6F3B653B6D83F31088C0467B68802270
:1055B000202199507B6800221A66EFF310837B65E7
:1055C0007B6DFB660123BB65BB6D83F31088C04612
:1055D0007B681B681A687B681B6810218A431A6005
:1055E000FB6EFB65FB6D83F31088C0467B685B6FC9
:1055F0001800FFF779F97B6802225A667B68582207
:105600009A5A7B685A215B5A9BB2D31A9AB27B682A
:105610001100180000F0FEF8E0E07B6858229B5A69
:105620007E22BA1812889A4200D0D7E07B685B6F5E
:105630001B681B6820221340202B00D0CEE07B6823
:1056400002225A667B6858229A5A7B681100180019
:1056500000F0E0F8C2E07B685822995A7B685A2231
:105660009B5A9AB28E203B188A1A1A807B685A225B
:105670009B5A9BB2002B00D1B2E03B181B88002B39
:1056800000D1ADE0EFF31083FB60FB6888243A198A
:10569000136001233B613B6983F31088C0467B683C
:1056A0001B681A687B681B6851490A401A603B19DD
:1056B0001B687B617B6983F31088C046EFF310831E
:1056C000BB61BB6984243A1913600123FB61FB6948
:1056D00083F31088C0467B681B689A687B681B68E8
:1056E00001218A439A603B191B683B623B6A83F342
:1056F0001088C0467B688022202199507B68002258
:105700001A667B6800229A66EFF310837B627B6ADD
:1057100080243A1913600123BB62BB6A83F31088AB
:10572000C0467B681B681A687B681B6810218A4327
:105730001A603B191B68FB62FB6A83F31088C04642
:105740007B6802225A663B181A887B681100180091
:1057500000F060F844E0A423FB181A6880235B0380
:10576000134010D09C23FB181A688023DB031340DE
:1057700009D07B681B68802252031A627B6818007C
:1057800000F060FD2FE0A423FB181B68802213406B
:105790000FD0A023FB181B688022134009D07B6820
:1057A000DB6E002B1ED07B68DB6E7A68100098479A
:1057B00018E0A423FB181B684022134013D0A02339
:1057C000FB181B68402213400DD07B68180000F0C6
:1057D0000EFD08E0C04606E0C04604E0C04602E018
:1057E000C04600E0C046BD462BB090BDFFFEFFFFA7
:1057F000DFFEFFFF80B582B000AF7860C046BD46D7
:1058000002B080BD80B582B000AF7860C046BD46B2
:1058100002B080BD80B582B000AF78600A00BB1CCA
:105820001A80C046BD4602B080BD0000B0B58EB043
:1058300000AFF8611A2318229B18DB1900221A7096
:10584000FB699A68FB691B691A43FB695B691A4328
:10585000FB69DB6913437B63FB691B681B68C34AF5
:1058600013401900FB691B687A6B0A431A60FB69D5
:105870001B685B68BE4A13401900FB69DA68FB6964
:105880001B680A435A60FB699B697B63FB691B6861
:10589000B84A934204D0FB691B6A7A6B13437B635B
:1058A000FB691B689B68B44A13401900FB691B68BD
:1058B0007A6B0A439A60FB691B68B04A934231D104
:1058C000AF4BDB6C03221340032B1DD023D8022BDC
:1058D0000CD020D8002B02D0012B0ED01BE01B23B4
:1058E00018229B18DB1901221A70B4E01B2318221E
:1058F0009B18DB1902221A70ADE01B2318229B189B
:10590000DB1904221A70A6E01B2318229B18DB194E
:1059100008221A709FE01B2318229B18DB19102203
:105920001A7098E0FB691B68964A934231D1944BF8
:10593000DB6C0C2213400C2B1DD023D8082B0CD071
:1059400020D8002B02D0042B0ED01BE01B231822E2
:105950009B18DB1900221A707DE01B2318229B186C
:10596000DB1902221A7076E01B2318229B18DB1920
:1059700004221A706FE01B2318229B18DB190822DF
:105980001A7068E01B2318229B18DB1910221A706A
:1059900061E0FB691B687C4A934206D11B231822F5
:1059A0009B18DB1900221A7055E0FB691B68774AC7
:1059B000934206D11B2318229B18DB1900221A7070
:1059C00049E0FB691B686B4A93423ED16C4BDA6C31
:1059D000C0231B011340C0221201934227D0C022D2
:1059E000120193422AD880221201934211D08022C0
:1059F0001201934222D8002B04D08022D20093427D
:105A00000ED01BE01B2318229B18DB1900221A70F2
:105A100021E01B2318229B18DB1902221A701AE0BE
:105A20001B2318229B18DB1904221A7013E01B2376
:105A300018229B18DB1908221A700CE01B2318226D
:105A40009B18DB1910221A7005E01B2318229B18E3
:105A5000DB1910221A70FB691B68464A934200D07A
:105A60009AE01B2318229B18DB191B78082B1DD0EA
:105A700020DC042B15D01DDC002B02D0022B05D01E
:105A800018E0FEF7CDFB0300FB621CE03C4B1B68FB
:105A90001022134002D03E4BFB6214E03D4BFB62F0
:105AA00011E0FEF72DFB0300FB620CE080231B02DC
:105AB000FB6208E00023FB621A2318229B18DB1903
:105AC00001221A70C046FB6A002B00D133E1FB694A
:105AD0005A6813005B009B18FA6A9A4205D3FB6967
